:020000020000FC
:027FFE0005017B
:107C0000CFEFDAE0DEBFCDBF11248FEF87B984B7A5
:107C100014BE98E19093600010926000882321F4D4
:107C200091E080E488B915C088279927EE27FF27BF
:107C300045915591840F951FE030D1F7FC37C1F77E
:107C4000892B80E888B9EE27FF27099480E288B95C
:107C5000992790930001F89481E080938100EE27AA
:107C6000FF27109202014C9BFECFA4D08823CCF7B3
:107C7000853EB9F79FD08031A1F7C3E09BD08F3705
:107C800081F7CA95D9F7C3E0D1E06CD0803449F7C9
:107C900069D082958F70809301018CD08091020110
:107CA0009FEF891358D0909101019923E9F4C3E023
:107CB000D1E089918D30A9F68991883E91F699910C
:107CC0002196899180FF05C0953019F081FFC9CFB9
:107CD000E0F421968991813021F689918530A9F4CB
:107CE00081E080930001BBCF80910001882369F07F
:107CF000913061F490910401809105018E179F07E6
:107D000019F480910301811126D0ABCF923011F488
:107D10000BD0A7CF9430C9F7C3E0D1E088E0199227
:107D20008A95E9F701D0FECF44E0A3E0B1E00D90E1
:107D30001D9051E057BFE895112432964150B9F794
:107D4000CF018F779070892B29F421D0E03011F486
:107D5000FC3709F0089588E128E0809360002093C3
:107D60006000FFCFFF92BF9384E0F82E23D0B82F9E
:107D7000807F809301011ED0B0FD80688993B69505
:107D8000FA94C9F7BF91FF90809101010895EF0126
:107D90003197E078CF01880F991F98B983E004D01C
:107DA00085E002D0FE01089587BFE89507B600FC84
:107DB000FDCF08954C99FECF20918400309185002D
:107DC00020563A4F309389002093880098E086959A
:107DD000A6B3A260A6BBA6B3A1FFFDCF4C99806855
:107DE00020543C4F3093890020938800915079F7BC
:107DF000A6B3A260A6BBA6B3A1FFFDCF4C9BABDF91
:0C7E0000A0910201A827A09302010895A0
:00000001FF
