:020000040000FA
:100000000C94C9020C94F1020C94F1020C94F102CC
:100010000C94F1020C94F1020C94F1020C94F10294
:100020000C94F1020C94F1020C94C6100C9435114E
:100030000C94F1020C94F1020C94F1020C94F10274
:100040000C9450150C94B1130C94F1020C94F10221
:100050000C94F1020C94F1020C94F1020C946713CD
:100060000C94F1020C94F1020C94F1020C94F10244
:100070000C94F1020C94F1020C94F1020C94F10234
:100080000C94F1020C94F1020C94F1020C94F10224
:100090000C9486150C94F1020C94F1020C94F1026C
:1000A0000C94F1020C94F1020C94F1024C4E435664
:1000B00020446973636F7665720A004C4E43562084
:1000C00050726F672053746172740A004C4E43562D
:1000D0002050726F672053746F70004C4E4356204F
:1000E00057726974650A004C4E435620526561642C
:1000F0000A000000000200090F0000030401000CC8
:1001000000000000000000000000000000000000EF
:10011000000A5365742064656661756C74204164DF
:100120007200436865636B20454550524F4D3A0A53
:10013000000A20204C657365204C4E4356730A001C
:1001400000000000240027002A002D0030000000DD
:100150000000250028002B002E00310004040404B8
:10016000040304050202020204030202020206065C
:100170000606060604040202020404040802011032
:1001800040804010204080408008020401804020D0
:10019000100201108010204040200A496E766572DE
:1001A000743A0A000A53656E736F723A0A000A4F76
:1001B00075747075743A0A000A4F757470757420FE
:1001C00053746174653A000A496E707574205374F3
:1001D0006174653A0A000A2020496E69743A0A007F
:1001E000080B0002020200000904000001020200E4
:1001F0000005240010010524010101042402060564
:1002000024060001070581031000400904010002D3
:100210000A000000070502024000000705830240B3
:1002200000000403090412010002EF02014041230F
:10023000368000010102030141726475696E6F200E
:100240004C4C430041726475696E6F204C656F6E53
:100250006172646F00453A53776974636820537420
:100260006174650A00453A53776974636820526582
:10027000706F72740A00453A53776974636820524C
:10028000657173740A00453A53656E736F720A00A4
:1002900000000000000000000000065F5F06000094
:1002A0000003030003030000147F7F147F7F14000A
:1002B000242E6B6B3A120000466630180C66620002
:1002C000307A4F5D377A48000004070300000000D1
:1002D000001C3E63410000000041633E1C00000022
:1002E000082A3E1C1C3E2A0808083E3E080800005A
:1002F0000080E0600000000008080808080800000E
:1003000000006060000000006030180C060301006F
:100310003E7F71594D7F3E0040427F7F404000004C
:10032000627359496F260000226349497F360000F5
:10033000181C16537F7F5000276745457D39000004
:100340003C7E4B4979300000030371790F070000B0
:10035000367F49497F360000064F49693F1E00003D
:1003600000006666000000000080E66600000000F5
:1003700000081C36634100002424242424240000A7
:10038000004163361C080000020351590F060000AB
:100390003E7F415D5D1F1E007C7E13137E7C00004E
:1003A000417F7F49497F36001C3E63414163220003
:1003B000417F7F41637E1C00417F7F495D41630037
:1003C000417F7F491D0103001C3E63415173720050
:1003D0007F7F08087F7F000000417F7F4100000091
:1003E0003070414F7F310000417F7F081C776300F0
:1003F000417F7F41406070007F7F0E1C0E7F7F0039
:100400007F7F060C187F7F001C3E6341633E1C000B
:10041000417F7F49090F06001E3F21717F5E00006A
:10042000417F7F09197F6600266F4D5973320000A6
:1004300003417F7F410300007F7F40407F7F0000BA
:100440001F3F60603F1F00007F7F3018307F7F00BC
:1004500043673C183C674300074F78784F0700001C
:10046000476371594D677300007F7F414100000071
:100470000103060C183060000041417F7F0000003E
:10048000080C0603060C0800808080808080808035
:100490000000030704000000207454543C7840001E
:1004A000417F3F4848783000387C44446C28000045
:1004B000307848493F7F4000387C54545C18000035
:1004C000487E7F490302000098BCA4A4F87C040085
:1004D000417F7F08047C780000447D7D400000005F
:1004E00060E08080FD7D0000417F7F10386C44001B
:1004F00000417F7F400000007C7C18381C7C780025
:100500007C7C04047C780000387C44447C38000007
:1005100084FCF8A4243C1800183C24A4F8FC8400B3
:10052000447C784C041C1800485C5454742400002B
:1005300000043E7F442400003C7C40403C7C400062
:100540001C3C60603C1C00003C7C7038707C3C00B3
:10055000446C3810386C44001CBCE0E03C1C0000CB
:100560004C64745C4C64000008083E774141000014
:1005700000000077770000004141773E0808000046
:10058000080C040C080C040000000000000000002F
:10059000A51611241FBECFEFDAE0DEBFCDBF12E0FB
:1005A000A0E0B1E0EEE8F8E402C005900D92AC36B0
:1005B000B107D9F725E0ACE6B2E001C01D92AB3738
:1005C000B207E1F712E0C9ECD2E004C02197FE01C6
:1005D0000E944C21C83CD107C9F70E946A170C94AD
:1005E00045240C94000091E090937F048093A10433
:1005F000109280041092A2040895CF93DF93FC011F
:1006000029E18EE241E050E033E071E090819076A4
:100610009036D1F491819093B103A091B103A15090
:100620001092B0039FEF6091B0036A1790F4C091ED
:10063000B003CE0FDF2FD11D688196276091B003E4
:100640006F5F6093B003EFCF9081929596709E5F3D
:10065000E2CFAE0FBF2FB11D9C93F8949091AF03E2
:10066000913059F49091AE03981738F01092AF037F
:1006700090916F009D7F90936F0078949091AF035D
:10068000913039F49091AE03943108F4BFCF70E00B
:10069000BDCF9091AF0391110EC0F89490916F006F
:1006A0009F7D90936F00B59B09C090916F00906201
:1006B00090936F0078947111A9CF51C0A091AC03B1
:1006C000B091AD039C916091AB03EA0102C0CC0FE5
:1006D000DD1F6A95E2F79C2B9C93609184007091DA
:1006E00085006A5A7C4F7093AA036093A9036091B6
:1006F000A9037091AA03709389006093880078948D
:10070000F093A803E093A7031092B0031092A603FE
:1007100090819093A5033093AF031092AE03B19AEA
:1007200090916F00926090936F009091AF0393301F
:10073000E1F39091A603992381F0E091A303F09156
:10074000A403E757FF4F80819181019691838083B5
:1007500083E090E0DF91CF9108959091AF038B31CA
:1007600008F08150215009F050CF80913D049091C4
:100770003E04019690933E0480933D0486E090E011
:10078000E9CFCF93DF93CDB7DEB760970FB6F8947C
:10079000DEBF0FBECDBF89836A834B83CE01019636
:1007A0000E94FD0260960FB6F894DEBF0FBECDBF6B
:1007B000DF91CF910895EF920F931F93CF93DF9323
:1007C000FC0185EE80838FE0818385E08283613048
:1007D00041F589E483838BE484838FE185831682EA
:1007E000508747833287218714870387E586DF0197
:1007F0001796AF01425F5F4F91E08D9187FF07C071
:100800002681292B2683ED0121978F778883990FE5
:10081000A417B50791F7DF91CF911F910F91EF903A
:10082000089563831482D9CFFC0180914A03882301
:1008300011F13FB7F89482E08093E9002091F20033
:10084000822F90E01816190614F481E090E08823B6
:1008500039F0289844E6409349034091F1004083E1
:10086000222339F02091F200211103C02BE62093BE
:10087000E8003FBF08958FEF9FEF08952FB7F894DA
:1008800083E08093E9009091E800892F807295FFC2
:1008900004C09091F20080E4891B2FBF08958091DD
:1008A000410381110DC082E080933D0384E0809379
:1008B0003E031092400310923F0381E08093410376
:1008C0008DE393E00895CF93DF931F92CDB7DEB70A
:1008D0006983DC01ED91FC910280F381E02D41E020
:1008E00050E0BE016F5F7F4F09950F90DF91CF9170
:1008F000089583E08093E9008091F200882319F045
:100900008AE38093E80008950E943E0490E00895F1
:10091000CF93DF931F92CDB7DEB7FC018485958519
:1009200097FD08C02FEF3FEF358724870F90DF91A9
:10093000CF910895CE0101960E941404019719F4F5
:10094000898190E0F3CF8FEF9FEFF0CF0F931F934C
:10095000CF93DF931F92CDB7DEB78C01FC01848566
:10096000958597FF0BC0CE0101960E941404019754
:1009700071F4898190E0F80195878487F801848576
:1009800095850F90DF91CF911F910F9108958FEF73
:100990009FEFF1CFFC018485958597FD0BC09FB734
:1009A000F89482E08093E9008091F2009FBF90E08C
:1009B000019608959FB7F89482E08093E9008091B2
:1009C000F2009FBF90E008954091370350913803A3
:1009D000209135033091360342175307B4F49091B8
:1009E000E8009570E1F39091E80092FD19C08093C2
:1009F000F100809137039091380301968F73992706
:100A0000892B19F48EEF8093E80080913703909141
:100A100038030196909338038093370381E008955B
:100A200080E00895EF92FF920F931F93CF93DF938F
:100A3000F82E192FE62E042F81E0860F880F0E94D2
:100A4000E40483E00E94E404CF2DD12FEC0EFD2EB0
:100A5000F11CCE15DF05B9F007FF13C0FE0184912C
:100A60000E94E404182F80E00E94E4048123219670
:100A70008111EFCFDF91CF911F910F91FF90EF90F8
:100A800008958881EDCF81E0F5CFDF92EF92FF925C
:100A90000F931F93CF93DF93D82E8A01EB017B0135
:100AA000E40EF51ECE15DF0559F0D7FE12C0FE018B
:100AB00084910E94E40421968111F4CF0FEF1FEF7F
:100AC000C801DF91CF911F910F91FF90EF90DF90C0
:100AD00008958881EECF0F931F93CF93DF931F92DA
:100AE000CDB7DEB782E0898342E450E060EE71E08A
:100AF00080E80E9445050E944F04DC0112960D918A
:100B00001C910115110589F0D801ED91FC9102802D
:100B1000F381E02DBE016F5F7F4FC801099597FDFE
:100B200004C0F80100851185ECCF89810F90DF9119
:100B3000CF911F910F910895615030F02091F100F5
:100B4000FC0120830196F8CF289884E6809349031E
:100B5000089508950895282F30E0F901EE50FF4FD1
:100B60009491F901E558FE4F8491245A3E4FF901C2
:100B70002491222309F430C09923E9F091509F3049
:100B8000D0F4E92FF0E0E953FA4F0C944C21F5052D
:100B9000F905D605ED05F105DB05DB05DB05FC05F3
:100BA000020606060A061006DB0514069091800070
:100BB0009F7790938000E22FF0E0EE0FFF1FE25B43
:100BC000FE4FA591B4919FB7F894EC91611132C09A
:100BD00080958E238C939FBF0895909180009F7D78
:100BE000E8CF90918000977FE4CF94B59F7794BD34
:100BF000E2CF94B59F7DFBCF909190009F7790932B
:100C00009000D9CF909190009F7DF9CF9091900066
:100C1000977FF5CF9091C0009F779093C000CBCF86
:100C20009091C0009F7DF9CF9091C200977F9093E3
:100C3000C200C1CF8E2BCECF3FB7F8948091D602A1
:100C40009091D702A091D802B091D90226B5A89B65
:100C500005C02F3F19F00196A11DB11D3FBFBA2F4E
:100C6000A92F982F8827BC01CD01620F711D811D0E
:100C7000911D42E0660F771F881F991F4A95D1F793
:100C800008958F929F92AF92BF92CF92DF92EF9290
:100C9000FF926B017C010E941C064B015C01C11498
:100CA000D104E104F104B9F00E941C066819790925
:100CB0008A099B09683E73408105910580F321E014
:100CC000C21AD108E108F10888EE880E83E0981E68
:100CD000A11CB11CE4CFFF90EF90DF90CF90BF90AC
:100CE000AF909F908F9008958F929F92AF92BF92F6
:100CF000CF92DF92EF92FF920F931F93CF93DF93E8
:100D00006C017B018A0180910B01882309F45CC08E
:100D100080914A03882309F457C080913C0380FFE7
:100D200005C08091E00082608093E000E801B12C72
:100D30008AEFA82E93E0892E2AE3922E209711F4B1
:100D4000BB20D9F10E943E0481110AC0AA94AA20B6
:100D5000D9F161E070E080E090E00E944106EECFC2
:100D60008C171D0611F00CF08C2F9FB7F894809211
:100D7000E9002091E80025FD02C09FBFDFCF282FAA
:100D800030E0C21BD30BF701815020F0419140931A
:100D9000F100FACFE20EF31EBB2021F09092E800A2
:100DA000B12CEBCF8091E80085FDE7CF9092E80071
:100DB000BB24B394209709F3F3CF5D9884E6809326
:100DC0003B03101611063CF081E090E0F60193839E
:100DD000828310E000E0C801DF91CF911F910F9155
:100DE000FF90EF90DF90CF90BF90AF909F908F904B
:100DF00008952FB7F8946091D2027091D302809138
:100E0000D4029091D5022FBF08952091AD02260FF4
:100E10003327331F21323105ECF420917904FC0192
:100E200090E080E0243069F082E00895A091AD0266
:100E30002191AC0143575D4FA40FB52FB11D2C93E9
:100E40000196861798F38091AD02680F6093AD020A
:100E500080E0089581E008951092790481E0809304
:100E600078041092530461E082E00E94AB0561E0D7
:100E700083E00E94AB05E9EBF0E080818E7F808308
:100E800080818D7F808388E48093B80085E480939F
:100E9000BC000895CF93DF9391E090938C02882358
:100EA000B9F0C091B800D091BA008091BC008A7BA3
:100EB0008093BC0060E082E00E94AB0560E083E0CC
:100EC0000E94AB050E942C07D093BA00C093B800D3
:100ED000DF91CF910895CF92DF92EF92FF920F931F
:100EE0001F93CF93DF93D091A20481E0D13208F019
:100EF0009CC0C091A1040E941C066B017C018091E2
:100F0000790481116CC082E08093790481E0809340
:100F100078048FEF8093770410927604D093750451
:100F2000A1E8B4E0E5E5F4E080E0D8138DC01092CC
:100F3000540480915404CC0FC82BC0935404809166
:100F40005304813009F084C0109253040E941C069F
:100F50006B017C01809154048093BB0080917B04E1
:100F600090917C04A0917D04B0917E04892B8A2B02
:100F70008B2BA1F00E941C0600917B0410917C0435
:100F800020917D0430917E046C197D098E099F09A2
:100F9000061717072807390708F442C08091BC00DC
:100FA00083FDD8CF85EC8093BC000E941C066B01AA
:100FB0007C0180917904823009F44CC080917704DF
:100FC0008F3F09F469C080917704803209F466C0CC
:100FD00080917704803309F463C084E026C0809157
:100FE0007B0490917C04A0917D04B0917E04892BB8
:100FF0008A2B8B2B09F483CF0E941C0600917B0463
:1010000010917C0420917D0430917E046C197D093F
:101010008E099F09061717072807390708F06FCFB1
:1010200080917A040E944A0785E010928004109211
:10103000A20410927F04DF91CF911F910F91FF9036
:10104000EF90DF90CF9008959D9191938F5F6DCF3A
:1010500085EEA9CF80917B0490917C04A0917D04C2
:10106000B0917E04892B8A2B8B2B09F4A2CF0E948E
:101070001C0600917B0410917C0420917D0430912A
:101080007E046C197D098E099F090617170728072A
:10109000390708F08ECFC4CF80E0C7CF82E0C5CF3C
:1010A00083E0C3CF0895E091DF028091DE02E8176C
:1010B00030F4F0E0E459FD4F808190E008958FEF27
:1010C0009FEF08959091DF028091DE022FEF3FEFB6
:1010D000981748F4E92FF0E0E459FD4F208130E003
:1010E0009F5F9093DF02C90108958091DE02909185
:1010F000DF02891B990B0895CF92DF92EF92FF9246
:101100000F931F93CF93DF937C01CB018A01209132
:101110007F04222389F0EB016B01C40ED51ECC1590
:10112000DD0569F06991D701ED91FC910190F081A5
:10113000E02DC7010995F3CF642F0E940507C80170
:10114000DF91CF911F910F91FF90EF90DF90CF90A3
:1011500008959091F504992379F1883068F560310C
:1011600058F58093FA046093FB049091FC04890F76
:10117000883008F088508F70806B80930D01660F67
:10118000660F660F8091F904680F862F8F70809329
:101190000F0162956F706061609311018091F80496
:1011A0000E94F30246E050E06CE071E08EEF94E0C4
:1011B0000E947C080C946B070895CF93DF931F92D5
:1011C000CDB7DEB7698320917F042223F9F0209107
:1011D000A204203258F021E030E0FC013383228366
:1011E00090E080E00F90DF91CF910895809180048E
:1011F000E82FF0E0EF57FB4F998190838F5F80934A
:1012000080048093A20481E090E0ECCF61E0CE0105
:1012100001960E940507F7CF682F8EEF94E00C949B
:10122000DD080F931F93CF93DF939091F5049923DB
:1012300009F457C08093FA041092FB049091FC04C7
:10124000890F883008F088508F70806B80930D0173
:1012500010920F0180E1809311018091F8040E94A7
:10126000F30246E050E06CE071E08EEF94E00E9403
:101270007C080E946B078091F3049091F40406E1CE
:1012800016E0019711F400E118E0C0E08091F80445
:101290000E94F30280E490E00E940C09D0E090E00C
:1012A00080E00E940C09DF5F0D13F9CF0E946B07ED
:1012B000CF5F1C13EBCF8091F90480930F018091D5
:1012C000F8040E94F30246E050E06CE071E08EEF1B
:1012D00094E00E947C08DF91CF911F910F910C94B4
:1012E0006B07DF91CF911F910F91089586E00E94C7
:1012F000110985E00C941109CF93C82F8091F8044F
:101300000E94F30290E080E00E940C096C2F8EEFA7
:1013100094E00E94DD08CF910C946B07CF93DF938C
:10132000D82FC62F8091F8040E94F30290E080E04D
:101330000E940C096D2F8EEF94E00E94DD086C2F47
:101340008EEF94E00E94DD08DF91CF910C946B0743
:10135000CF938091F504882391F0C0E08C2F0E94F8
:101360001109CF5FC830D1F71092FC0460E083ED23
:101370000E948E0960E080E0CF910C94A908CF9183
:1013800008951092FB042091F6043091F704909197
:10139000FA042330310551F5973069F58091FC044A
:1013A0008F5F883000F58093FC046091FC04660F29
:1013B000660F660F83ED0E948E098091FA048830D3
:1013C00010F01092FA046091FB048091FA040E94DC
:1013D000A9088091F6049091F704039784F0809116
:1013E000FA040C9411091092FC04DFCF811103C0A0
:1013F0002230310511F79F5F9093FA04DECF0895F4
:101400000F931F93CF93DF939091F504992309F4E1
:101410003EC08A3039F481E0DF91CF911F910F9166
:101420000C94C10990EE980F903688F5C82F8091E2
:10143000FB04803118F080E00E94C109C052DD0B2E
:1014400083E0CC0FDD1F8A95E1F7C057DD4F809117
:10145000F8040E94F30280E490E00E940C098E01DF
:10146000085F1F4FFE01649121968091FD04811158
:1014700060958EEF94E00E94DD08C017D10791F7C8
:101480000E946B078091FB048F5F8093FB04DF91C8
:10149000CF911F910F910895CF93DF932091F50481
:1014A000222349F0EC01FE0184912196882319F052
:1014B0000E94000AF8CFDF91CF910895CF93DF9378
:1014C0002091F504222339F0EC018991882319F049
:1014D0000E94000AFACFDF91CF910895CF93DF9356
:1014E000EC0187E00E941109CE01DF91CF910C94AD
:1014F0005E0ACF92DF92EF92FF921F93CF93DF931A
:101500007C016B0110E1C0E0D0E8C7018C239D2372
:10151000892B81F08DEC91E00E945E0AD695C795EB
:10152000115099F7DF91CF911F91FF90EF90DF90CD
:10153000CF900895C6018C239D23892B19F08FEC41
:1015400091E0EACF81ED91E0E7CF90E080E008956F
:101550001F93CF93DF93142FFB0131970097D9F49A
:101560004F2F4F70BF01769567956F77E0FD11C0E3
:1015700040641111406182EB0E94C10360915103EC
:101580007091520390E080E0DF91CF911F910C9415
:1015900041064066EECFEF01CC0FCD2FCC1FDD0B07
:1015A000D195CF70DE2FDF770197C1F44C2F111149
:1015B00013C040616D2F80EB0E94C10360915903FD
:1015C00070915A0390E080E00E9441061111C062C0
:1015D0004C2F6D2F80EBD0CF4063ECCF2111C06139
:1015E0001111C0624C2F6D2F81EBC6CF0F931F934B
:1015F000CF93DF938C01EB010E9476098CEC90E095
:101600000E944C0A80913605882381F08091E20285
:101610009091E3028017910749F48091E002909144
:10162000E102C817D90711F410923605DF91CF9166
:101630001F910F91089510927405299AF89414BE81
:10164000E0E0FEE309940895909149058923089507
:101650009091510589230895909159058923089502
:1016600090916105892308959091690589230895D2
:101670002F923F924F925F926F927F928F929F92A2
:10168000AF92BF92CF92DF92EF92FF920F931F9390
:10169000CF93DF9300D000D0CDB7DEB76C01809040
:1016A000530390905403809490942090550330906D
:1016B000560380914F03909150039A8389836090E1
:1016C0005B0370905C0340905D0350905E0300915B
:1016D0003303109134030C251D2508211921F12C09
:1016E00081E090E09C838B83E12C0115110509F4C6
:1016F000B2C08B819C8188219921892B09F49BC0E0
:101700009FE09F1508F497C0AF2CB12CF501EE0FA8
:10171000FF1FE15AFC4F608171816115710509F469
:101720008AC0A981BA818B819C81A823B9239C019D
:101730002C213D21109729F041E0232B61F440E05A
:101740000AC08B819C818421952141E0232B09F4DF
:1017500054C0892BA1F78B819C818023912320E0A9
:10176000892B09F14423F1F02091320530913305A2
:10177000EAE0F5E0818581110CC08085882349F07D
:101780008150990BA816B90621F4848195812827E8
:1017900039273A9695E0E233F90761F7309333053C
:1017A0002093320521E031E03F0D8B819C81822125
:1017B0009321892B31F581E090E0AB2B21F18B81D6
:1017C0009C8180959095082319238B819C81880F9B
:1017D000991F9C838B838C219D2151E0892B09F4D7
:1017E00050E08B819C8180239123F32EE42E452FA2
:1017F000892B79F582E090E006C0892B09F0ABCF08
:101800009ECF90E080E0EB81FC81E621F721EF2B79
:1018100031F0EB81FC81EC21FD21EF2B61F02223E3
:1018200051F02E2D8230910521F4242F4E2D82E08F
:1018300090E00E94A80A8B819C8180959095082356
:101840001923F3948B819C81880F991F9C838B8330
:101850004CCF21E0CFCFD0923403C09233030F900E
:101860000F900F900F90DF91CF911F910F91FF90EC
:10187000EF90DF90CF90BF90AF909F908F907F9030
:101880006F905F904F903F902F900895CF92DF928E
:10189000EF92FF920F931F93CF93DF93C090530368
:1018A000D0905403C094D094D0E0C0E001E010E0A8
:1018B000F12CE12CC60180239123892B89F0FE01B4
:1018C000EE0FFF1FEE5CFE4F0190F081E02DDE0178
:1018D000AE58BE4F8C910995882311F0E02AF12A69
:1018E000000F111F2196C031D10521F7C701DF91EB
:1018F000CF911F910F91FF90EF90DF90CF900895BF
:10190000CF93DF93DC012091260330912703282712
:101910003B2780915303909154032823392380E07F
:1019200041E050E02115310541F1B90164237523EF
:10193000672BD9F0682F70E0FB01EE0FFF1FEE5E02
:10194000FE4F0190F081E02D6E587E4FEB019881A3
:10195000BA016A237B23672B61F06081962B908309
:10196000BA0160957095262337238F5F440F551F6A
:10197000D9CF608190959623F2CFB0932703A0939F
:101980002603DF91CF910895FC01928120812927C0
:1019900026278581382F3223309535836681462F5F
:1019A000422334273683682B60956223892F86274C
:1019B0008283909569239381692B63839181892325
:1019C00011F494E697839781915011F097830895CD
:1019D00094E197839481892B848308950F931F93B7
:1019E00080914605882329F063B187E695E00E943F
:1019F000C40C80914305882329F066B18FE595E0FA
:101A00000E94C40C80914005882329F069B187E5C4
:101A100095E00E94C40C80913D05882329F06CB1AB
:101A20008FE495E00E94C40C80913A05882329F048
:101A30006FB187E495E00E94C40C80917305811119
:101A400004C080917405882359F10E94F906009121
:101A50009F031091A0032091A1033091A2030617C8
:101A6000170728073907E0F40E94F9066C507E4FEB
:101A70008F4F9F4F60939F037093A0038093A103A8
:101A80009093A20380917305882319F01A9B0BC0D1
:101A90002A9880917405882319F0199B06C029980B
:101AA0001F910F9108952A9AF4CF299AF9CFCF93D5
:101AB000DF930E94A809C3EFD4E081E08A871F92D8
:101AC0001F921F928BE08F9385E08F9388EE8F9308
:101AD00083ED91E09F938F9381E494E09F938F93A4
:101AE0000E94642181E494E00E945E0A1A868DB708
:101AF0009EB70A960FB6F8949EBF0FBE8DBFDF91BA
:101B0000CF9108952F923F924F925F926F927F9262
:101B10008F929F92AF92BF92CF92DF92EF92FF92FD
:101B20000F931F93CF93DF93CDB7DEB72A970FB6EE
:101B3000F894DEBF0FBECDBFE0913405F0913505BE
:101B4000E617F707E1F481E0809337052A960FB690
:101B5000F894DEBF0FBECDBFDF91CF911F910F91E3
:101B6000FF90EF90DF90CF90BF90AF909F908F90BD
:101B70007F906F905F904F903F902F900895E091ED
:101B80005303F0915403FC83EB83E0915503F091F0
:101B90005603FE83ED83E0915703F0915803F887D5
:101BA000EF83E0914F03F0915003FA87E987E5EE68
:101BB000AE2EE1E0BE2E411104C05BEEA52E51E039
:101BC000B52E422E542E3B018C019BE4892E93E0CE
:101BD000992E90E080E0EE24E394F12C31EFC32EB7
:101BE00031E0D32E9C012F5F3F4F3A8329832B8115
:101BF0003C812E213F21232BA1F0382E292EF401E8
:101C000084899589009769F06816790651F48D8169
:101C10009E818E219F21892BE9F10115110509F47F
:101C200046C0EE0CFF1C89819A81F2E08F0E911C58
:101C300080319105B9F62091320530913305EAE003
:101C4000F5E0818581110EC080819181009751F06E
:101C50006816790639F4868181FFC3C00115110524
:101C600009F4C3C082819381009751F06816790608
:101C700039F4878181FFC5C00115110509F4C5C07C
:101C80003A9685E0E233F807E1F630933305209386
:101C900032055CCF89859A858E219F21892BD1F0D1
:101CA0000230110509F0BDCFF981242DF0FF252D5B
:101CB00080913205909133054F8158854E215F21E7
:101CC000452B69F0222369F09701209530958223F6
:101CD000932309C00130110509F0A3CFE8CF2223D7
:101CE00099F38E299F2990933305809332050E94A2
:101CF000760980917505909176058130910581F185
:101D000098F082309105C9F1039709F08ACF85E5F3
:101D100092E00E944C0A2F923F92DF92CF9281E490
:101D200094E09F938F930CC086E892E00E944C0A47
:101D30002F923F92DF92CF9221E434E03F932F9392
:101D40000E94642181E494E00E945E0AC5010E9421
:101D50005E0A0F900F900F900F900F900F9061CF31
:101D600086E792E00E944C0A2F923F92DF92CF9238
:101D7000E1E4F4E0FF93EF93E3CF85E692E00E9485
:101D80004C0A2F923F928BEF91E09F938F9321E427
:101D900034E03F932F930E94642181E494E00E94F9
:101DA0005E0A81E0411001C080E01F928F9381E0C4
:101DB000511001C080E01F928F93E3E0F2E0FF93A7
:101DC000EF9381E494E09F938F930E94642181E4D8
:101DD00094E00E945E0A0FB6F894DEBF0FBECDBF3E
:101DE00020CF0130110509F03DCF552041F0817021
:101DF00009F438CF848195812827392733CF8095FE
:101E0000F6CF0130110509F03BCF552019F0817054
:101E1000818736CF8095FBCF462F109276051092A2
:101E2000750520E0BC0190E080E00C94820D262F27
:101E300061E070E07093760560937505BC0181E008
:101E400090E00C94820D262F62E070E0709376058E
:101E500060937505BC0182E090E00C94820D0F93B5
:101E60001F93CF93DF938B01EC01CC0FDD1FCE01CD
:101E70000E940F218017910741F0B801CE01DF9138
:101E8000CF911F910F910C942321DF91CF911F913E
:101E90000F910895FF920F931F93CF93DF93EB0160
:101EA000042FF52E20913605222309F448C02091F5
:101EB000E2023091E3022817390709F040C011E02F
:101EC0006634710528F4CB010197029760F51FE78E
:101ED0000E9476098BED90E00E944C0AFF920F93CE
:101EE000DF93CF938EE092E09F938F9381E494E011
:101EF0009F938F930E94642181E494E00E945E0A84
:101F00008AE192E00E946E0A8DB79EB708960FB6DE
:101F1000F8949EBF0FBE8DBF812FDF91CF911F918F
:101F20000F91FF900895642F752FCE010E942F0FFF
:101F3000209769F60093E002F092E102C8CF1FEF0C
:101F4000C7CFEF92FF920F931F93CF93DF938B0135
:101F50007A0120913605222309F443C02091E20240
:101F60003091E30228173907E1F5C1E066347105C5
:101F700048F4CB01880F991F0E940F21F70191832C
:101F80008083CFE7F701D081F1800E94760987EE48
:101F900090E00E944C0AFF92DF931F930F938EE014
:101FA00092E09F938F9381E494E09F938F930E949C
:101FB000642181E494E00E945E0A87E292E00E943C
:101FC0006E0A8DB79EB708960FB6F8949EBF0FBEE7
:101FD0008DBF8C2FDF91CF911F910F91FF90EF90CC
:101FE0000895CFEFCFCFDF92EF92FF920F931F9321
:101FF000CF93DF937C018B01FB0120813181FC01B8
:10200000408151818091E2029091E3024817590783
:1020100009F047C08091E0029091E1022F3F320722
:10202000B9F5FB019183808383E392E00E946E0AFD
:10203000CFE7F801D081D180F701108101810E94A2
:1020400076098BEB90E00E944C0ADF92DF930F93AE
:102050001F938AE492E09F938F9381E494E09F938F
:102060008F930E94642181E494E00E945E0A8DB700
:102070009EB708960FB6F8949EBF0FBE8DBF8C2FEB
:10208000DF91CF911F910F91FF90EF90DF90089516
:102090002817390731F481E0809336058DE392E00B
:1020A000C5CFCFEFC6CF0F931F93CF93DF93FC0124
:1020B0008091E2029091E30291838083C091E002DB
:1020C000D091E102DB01CC931196DC931081018168
:1020D0000E9476098CEA90E00E944C0ADF93CF932D
:1020E0000F931F938AE492E09F938F9381E494E08F
:1020F0009F938F930E94642181E494E00E945E0A82
:102100008DB79EB708960FB6F8949EBF0FBE8DBFD1
:102110008FE7DF91CF911F910F91089585ED809307
:10212000BC0080917B0490917C04A0917D04B091CF
:102130007E040796A11DB11D23E0B695A79597953E
:1021400087952A95D1F72091BC0024FD03C01092F9
:102150007904089540917B0450917C0460917D0442
:1021600070917E04452B462B472B69F30097A10500
:10217000B10541F02AE22A95F1F700C00197A109C3
:10218000B109E1CF80917A040C944A071F920F9213
:102190000FB60F9211248F939F938091E10090913D
:1021A000E100937F9093E10083FF0FC01092E9005C
:1021B00091E09093EB001092EC0092E39093ED008D
:1021C00010924A0398E09093F00082FF22C093E0BF
:1021D0009093E9009091F200992319F09AE390937B
:1021E000E80090913B03992341F090913B0391507B
:1021F00090933B03911101C05D9A909149039923FB
:1022000041F090914903915090934903911101C07D
:10221000289A84FF18C08091E2008E7E81608093AE
:10222000E2008091E1008F7E8093E10080913C0389
:102230008E7E806180933C039F918F910F900FBEA3
:102240000F901F90189580FFF7CF8091E2008E7E4F
:1022500080618093E2008091E1008E7E8093E100B6
:1022600080913C038E7E8160E5CF1F920F920FB666
:102270000F921124CF92DF92EF92FF920F931F9350
:102280002F933F934F935F936F937F938F939F937E
:10229000AF93BF93EF93FF93CF93DF93CDB7DEB7A9
:1022A0006C97DEBFCDBF1092E9008091E80083FFFC
:1022B00025C068E0CE0145960E949C0582EF809380
:1022C000E8008D8987FF39C09091E80090FFFCCF2E
:1022D000982F907609F034C19E894F89588D2F89A7
:1022E000F88C911131C0803861F580913A03809368
:1022F000F1001092F1008EEF8093E8006C960FB61B
:10230000F894DEBF0FBECDBFDF91CF91FF91EF916B
:10231000BF91AF919F918F917F916F915F914F91FD
:102320003F912F911F910F91FF90EF90DF90CF90F1
:102330000F900FBE0F901F9018959EEF9093E8009E
:10234000C7CF1092F100D5CF913059F48111D3CF7E
:102350004130510581F680913A038D7F80933A0395
:10236000CACF933049F48111C6CF4130510519F6D7
:1023700080913A038260F2CF953041F48091E80079
:1023800080FFFCCF20682093E300B5CF963009F0A2
:10239000A9C00B8D1C8D22E01092E9001092380329
:1023A00010923703F2122EC01092360310923503AA
:1023B0000E946B051F8299E09983FA8291E09E83C7
:1023C00090EA98879AEF99872091370330913803E4
:1023D000275F3F4F3C832B838D831092E90010923F
:1023E000380310923703109336030093350349E006
:1023F00050E0BE016F5F7F4F80E00E9445050E9464
:102400006B0579CF10933603009335030E944F0478
:10241000DC0112960D911C910115110509F451C1B1
:10242000D801ED91FC910480F581E02DBE016B5E39
:102430007F4FC8010995009709F03EC1F80100855A
:102440001185EACFF3E0FF120EC08F89882309F4CB
:1024500040C0823061F440E860E184E492E00E9490
:102460001205811148CF81E28093EB0047CF813084
:1024700029F440E86BE088E392E0F1CF833099F7EC
:102480000E944F04DC011296ED90FC908E010F5FCC
:102490001F4F6801E114F10479F0D701ED91FC912F
:1024A0000680F781E02DB801C7010995080F111DBD
:1024B000F701E084F184EECFD8011C92F60101907F
:1024C0000020E9F73197BF016C197D0940E0C60192
:1024D000C6CF62E272E0FB01449150E080E80E94C6
:1024E000450509CF973009F4BECF983021F481E03B
:1024F0008093F10000CF993009F0FDCE837009F090
:10250000B2CFE3EAF1E081E031E096E321912223CA
:1025100071F08093E9003093EB00DF0111972C916B
:102520002093EC009093ED008F5F873079F78EE772
:102530008093EA001092EA008F8980934A03DBCEF1
:102540008B8D9C8D1092E900109238031092370306
:102550009093360380933503898D811192C08E89C3
:102560009D89913A49F4813209F07DCF47E050E0EE
:1025700064E071E080E0B3CF913209F074CF833230
:1025800069F48F89988DB0E0A0E08093000190936A
:102590000101A0930201B0930301ADCE803269F432
:1025A0008091E80082FFFCCF67E084E091E00E9428
:1025B0009C058BEF8093E8009ECE823209F09BCE83
:1025C0008F8980930B01EEEFFFE7859194918B3F0C
:1025D0009C4D51F1E0E0F8E08091040190910501FB
:1025E000A0910601B0910701803B9440A105B1057F
:1025F000F1F480910B0180FD1AC0EE3F8AE0F807EC
:1026000089F587E797E791838083809160008093C5
:10261000390388E19BE00FB6F894A8958093600099
:102620000FBE9093600067CEEEEFFAE0D5CF8081C9
:1026300091818737974709F05ECEA8958091600019
:102640008861809360008091390380936000EE3F41
:102650002AE0F20789F08091FE0A9091FF0A9183A7
:10266000808349CE808191818737980751F290937A
:10267000FF0A8093FE0AC5CF1092FF0A1092FE0A4D
:102680003ACE0E944F04DC0112960D911C91011567
:10269000110509F4E8CED801ED91FC910190F0818B
:1026A000E02DBE016B5E7F4FC8010995811123CEDD
:1026B000F80100851185EBCF181619060CF41BCE16
:1026C000D2CEF1E0FF12BECE66E272E004CF1F92DE
:1026D0000F920FB60F9211242F933F938F939F93D6
:1026E000AF93BF938091D2029091D302A091D40274
:1026F000B091D5023091D10223E0230F2D3758F548
:102700000196A11DB11D2093D1028093D202909316
:10271000D302A093D402B093D5028091D6029091B7
:10272000D702A091D802B091D9020196A11DB11D86
:102730008093D6029093D702A093D802B093D90287
:10274000BF91AF919F918F913F912F910F900FBEAD
:102750000F901F90189526E8230F0296A11DB11D1A
:10276000D2CF1F920F920FB60F9211242F933F9347
:102770004F935F936F937F938F939F93AF93BF9389
:10278000CF93DF93EF93FF93B19A8091A903909138
:10279000AA0380549C4F9093AA038093A90380912D
:1027A000A9039091AA039093890080938800809157
:1027B000D002882371F01092D0024C9B25C081E09A
:1027C0008093AF03B59A80916F00806280936F0011
:1027D0001BC08091AE038F5F8093AE038091AF03E7
:1027E0008430F1F58091AE03893008F58091A5031E
:1027F00090E0959587958093A5034C9B05C08091AB
:10280000A50380688093A503FF91EF91DF91CF919D
:10281000BF91AF919F918F917F916F915F914F91F8
:102820003F912F910F900FBE0F901F901895B59A62
:1028300080916F00806280936F008091A3039091DC
:10284000A4034C9930C0FC01E957FF4F808191816E
:102850000196918380831092AE0381E08093AF0351
:102860008091AF03833009F04EC0E091AC03F0914A
:10287000AD0380814091AB0329B190E0042E02C0EA
:10288000959587950A94E2F730E054E035952795C1
:102890005A95E1F7822780FD1CC01092AE0382E0BA
:1028A0008093AF0330C04091A503FC01E058FF4F77
:1028B000208131E0320F3083820F911DDC014C9377
:1028C00037FD108280E090E0892B29F20E94000001
:1028D000C2CF8091AE03893008F043C02091A50398
:1028E00081E090E001C0880F4A95EAF7908120FFCF
:1028F00036C08095892380838091A50390E09595CB
:1029000087958093A5038091AF03823099F48091DD
:10291000AE0381119FC0E091AC03F091AD038081C3
:102920009091AB0321E030E001C0220F9A95EAF7C5
:10293000822B80838091AF03813009F065CF809135
:10294000AE03882309F43ECF8091AE03883308F4A8
:102950005BCF1092AF0380916F008D7F37CF892BB3
:10296000CACF8091AE03893059F4208181E090E094
:1029700001C0880F4A95EAF7809582238083C3CFF0
:102980008091B0038F5F8093B0039091B10389175A
:1029900050F51092AE038091A7039091A803A091E7
:1029A000B003A80FB92FB11D8C918093A50380812E
:1029B00021E030E001C0220F4A95EAF7822B8083A4
:1029C00080918400909185008A5A9C4F9093AA032D
:1029D0008093A9038091A9039091AA039093890001
:1029E0008093880090CF81E08093A603E091A703B5
:1029F000F091A8034091A3035091A40380818076B5
:102A00008036C9F4818130E020E0EA01C058DF4F10
:102A10002817B0F4DF01A20FB31F6C91A88191E0D9
:102A20009A0F9883A40FB52FB11D6C9397FD188250
:102A30002F5F3F4FEDCF8081829586708E5FE3CF11
:102A400080E090E0892B11F00E9400001092AE030C
:102A500081E026CF8091AE038F3008F46BCFE091F8
:102A6000AC03F091AD0320813091AB0381E090E0A5
:102A700001C0880F3A95EAF78095822380831092EF
:102A8000AE0381E08093AF03E091A303F091A40330
:102A9000E357FF4F808191810196918380834ACFD4
:102AA0001F920F920FB60F9211248F939F93EF9363
:102AB000FF93B59AEFE6F0E080818F7D808380916F
:102AC00086009091870080529E4F9093AA03809336
:102AD000A9038091A9039091AA0390938900809300
:102AE0008800B19A80818260808384E08093AF0304
:102AF0001092AE0381E08093D002FF91EF919F91FD
:102B00008F910F900FBE0F901F9018951F920F92EC
:102B10000FB60F9211242F933F934F935F936F93B0
:102B20007F938F939F93AF93BF93EF93FF93809186
:102B3000B900887F803609F44AC0F0F5883209F47C
:102B4000A7C018F5803109F49BC0B8F4882309F4B4
:102B5000F9C0883009F494C0FF91EF91BF91AF9113
:102B60009F918F917F916F915F914F913F912F91A5
:102B70000F900FBE0F901F901895883109F488C0F0
:102B8000803251F78093770414C0803409F49DC0DB
:102B900040F48033B9F38833F9F68093770485ECF9
:102BA000B0C0803509F485C0883509F496C08834F2
:102BB00099F60E948E10D0CF883909F48CC038F570
:102BC000883729F050F4883611F0803729F683E0F1
:102BD000809379041092CF0257C0883809F47BC0E3
:102BE000803919F0803809F0B7CF8091CF02803258
:102BF00008F071C0E091CF0281E08E0F8093CF0288
:102C00008091BB00F0E0E155FD4F80833DC0803BEB
:102C100039F0E0F4803A09F479C0883A09F09CCFA1
:102C200084E0809379041092AE021092AD02E0919C
:102C3000DC02F091DD0209958091AD0281110FC097
:102C400081E08093AD0210928D0209C0803C09F4AE
:102C5000A6CF883C09F4A3CF883B09F07DCFE09153
:102C6000AE0281E08E0F8093AE02F0E0E357FD4F9D
:102C700080818093BB009091AE028091AD0229C00B
:102C8000809154048093BB0085EC8093BC0064CF9A
:102C90009091760480917504981758F5E091760428
:102CA00081E08E0F80937604F0E0EB5AFB4F808139
:102CB000E9CFE091760481E08E0F809376048091D5
:102CC000BB00F0E0EB5AFB4F80839091760480913B
:102CD00075049817C8F285E8D8CFE091760481E0B2
:102CE0008E0F809376048091BB00F0E0EB5AFB4F8F
:102CF00080838091780481115CCF81E080935304BC
:102D000084EA8093BC001092790426CF85EC8093EE
:102D1000BC00109279048091CF02803230F4E091AF
:102D2000CF02F0E0E155FD4F10826091CF0270E0DC
:102D3000E091DA02F091DB028FEA92E009951092BD
:102D4000CF020ACF1092770434CF1092A6041092CB
:102D5000A50488EE93E0A0E0B0E08093A7049093F0
:102D6000A804A093A904B093AA042DEA31E03093FB
:102D7000A4042093A3042FEF3FEF3093B0042093DB
:102D8000AF041092F5041092010510920005809393
:102D9000020590930305A0930405B09305058FEBFE
:102DA00091E09093FF048093FE04109233051092FB
:102DB00032051092350510923405109236051092A6
:102DC0003705EAE0F5E01086118210821382128244
:102DD000168217821582148211863A9685E0E233B4
:102DE000F80789F7109246051092450510924405A0
:102DF0001092430510924205109241051092400531
:102E000010923F0510923E0510923D0510923C0530
:102E100010923B0510923A05109239051092380530
:102E200010926705109268051092690510926A0564
:102E300010926B058FEF80936C0580936D05109257
:102E40006E0510925F051092600510926105109258
:102E50006205109263058093640580936505109266
:102E60006605109257051092580510925905109258
:102E70005A0510925B0580935C0580935D05109266
:102E80005E0510924F051092500510925105109258
:102E90005205109253058093540580935505109266
:102EA0005605109247051092480510924905109258
:102EB0004A0510924B0580934C0580934D05109266
:102EC0004E051092770510927805109279051092B0
:102ED0007A050895CF93DF93CDB7DEB762970FB62B
:102EE000F894DEBF0FBECDBF789484B5826084BDF8
:102EF00084B5816084BD85B5826085BD85B58160FE
:102F000085BD80916E00816080936E00109281007B
:102F10008091810082608093810080918100816036
:102F200080938100809180008160809380008091F7
:102F300091008260809391008091910081608093E4
:102F40009100809190008160809390008091C100F9
:102F500084608093C1008091C10082608093C10031
:102F60008091C10081608093C1008091C300816025
:102F70008093C3008091C00082608093C0008091E4
:102F8000C20081608093C20080917A008460809347
:102F90007A0080917A00826080937A0080917A0032
:102FA000816080937A0080917A00806880937A00B3
:102FB00010924A0310923A0310923C038091D7007A
:102FC00081608093D70080EA8093D80089B58061C2
:102FD00089BD89B5826089BD09B400FEFDCF61E07D
:102FE00070E080E090E00E9441068091D8008F7CE4
:102FF00080618093D8008091E000807F8093E00022
:103000008091E1008E7E8093E1008DE08093E2006C
:10301000559A209A10922E031092F4041092F30401
:1030200083E090E09093F7048093F6041092FA0402
:103030001092FB041092FC041092FD041092DF0227
:103040001092DE02109280041092A2040E942C07BB
:1030500089EA95E09093DD028093DC028AEA95E0AC
:103060009093DB028093DA028CE30E94F3020E94C9
:103070006B0781115FC08CE38093F80481E080933B
:10308000F5048091F3049091F404019709F038C39A
:103090001092F9048EEA0E947C0960E885ED0E9496
:1030A0008E096FE388EA0E948E0960E083ED0E943A
:1030B0008E0980E40E947C0964E18DE80E948E09FB
:1030C00062E080E20E948E0962E18AED0E948E0930
:1030D0006FEC81E80E948E0961EF89ED0E948E09F4
:1030E00060E48BED0E948E0984EA0E947C0986EAE6
:1030F0000E947C0980EB0E947C0980E00E947C0990
:1031000080E10E947C098FEA0E947C0980EA0E948B
:103110007C0980EC0E947C090E94A8098091F5043A
:10312000882341F081EA0E947C0988EC0E947C0996
:103130000E94A8090E94570D86ED91E00E944C0A5A
:1031400090E080E00E940F218C0182E090E00E94DC
:103150000F217C0182E291E00E944C0AFF92EF92E3
:103160001F930F9386E592E09F938F9381E494E001
:103170009F938F930E94642181E494E00E945E0AF1
:10318000015011090FB6F894DEBF0FBECDBF0E3F40
:103190001F4F30F448EEE41645E0F40609F4E7C2A8
:1031A00081E191E00E944C0A61E070E090E080E0F3
:1031B0000E942F0F68EE75E081E090E00E942F0FD3
:1031C0006CE474E082E090E00E942F0F70E060E019
:1031D00083E090E00E942F0F6AE070E084E090E0CE
:1031E0000E942F0F70E060E085E090E00E942F0FBA
:1031F00070E060E086E090E00E942F0F6AE070E0EF
:1032000087E090E00E942F0F70E060E088E090E09F
:103210000E942F0F70E060E089E090E00E942F0F85
:1032200005E410E070E060E0C8010E942F0F01503B
:10323000110909301105B1F76AEF70E080E090E004
:103240000E94410664EF71E080E090E00E94410638
:1032500081E391E00E944C0A82E090E00E940F21FD
:1032600090934C0380934B0390E080E00E940F21E9
:1032700090934E0380934D0386E090E00E940F21CF
:103280009093500380934F0380E190E00E940F21C0
:1032900090935C0380935B0382E190E00E940F2196
:1032A00090935E0380935D03109254031092530336
:1032B0001092560310925503109258031092570320
:1032C0008EE090E00E940F2190935A03809359035F
:1032D000059730F485E090E090935A03809359036A
:1032E00088E090E00E940F21909352038093510355
:1032F000059730F485E090E090935203809351035A
:103300006FE5C62E63E0D62E0EE310E0EE24E394C4
:10331000F12CEAE0AE2EB12CC8010E940F21D6019B
:1033200091969C938E939097C80188970E940F2145
:10333000B5010E943821F601619371936F0182FDFE
:103340000AC020915303309154032E293F29309312
:1033500054032093530381FF0AC0209155033091F9
:1033600056032E293F29309356032093550380FDA1
:103370000AC080915703909158038E299F299093FA
:10338000580380935703EE0CFF1C0E5F1F4F0E3542
:10339000110511F664EF71E080E090E00E944106B3
:1033A000C0905303D0905403D0927005C0926F0523
:1033B00002E711E082E891E0A2E5B1E021E030E02F
:1033C000F80151918F01B60162237323672B09F431
:1033D000D5C1FC0160817181FB014081452B408397
:1033E000220F331F02961296F1E002381F0741F7B1
:1033F00080914605882391F08091460594B180958F
:10340000892384B9809146052091440595B1822392
:10341000892B85B980914405809367058091450586
:1034200094B18760892B84B98091450595B18760F7
:103430008095892385B980914305882391F08091F7
:10344000430597B18095892387B9809143052091E1
:10345000410598B18223892B88B9809141058093D9
:103460005F0580914205882359F08091420597B10C
:10347000892B87B98091420598B18095892388B9B5
:1034800080914005882391F0809140059AB1809504
:1034900089238AB98091400520913E059BB1822302
:1034A000892B8BB980913E058093570580913F050C
:1034B000882359F080913F059AB1892B8AB9809170
:1034C0003F059BB1809589238BB980913D05882369
:1034D00091F080913D059DB1809589238DB98091B2
:1034E0003D0520913B059EB18223892B8EB98091A9
:1034F0003B0580934F0580913C05882359F08091CE
:103500003C059DB1892B8DB980913C059EB180957C
:1035100089238EB980913A05882391F080913A05EC
:1035200090B38095892380BB80913A05209138051E
:1035300091B38223892B81BB809138058093470505
:1035400080913905882359F08091390590B3892BF2
:1035500080BB8091390591B38095892381BB16E0AA
:1035600064E170E080E090E00E9441060E94EE0C71
:103570001150B1F764E170E080E090E00E944106F4
:10358000A0905303B0905403A094B09482E090E0D4
:103590000E940F219093E3028093E20290E080E08A
:1035A0000E940F219093E1028093E0028AE090E074
:1035B0000E940F2190933505809334050AE015E0B1
:1035C000E4E6EE2EF12C4424439466246394712C9B
:1035D000AAE08A2E912CBAE05B2EC7010E940F212F
:1035E000382EC70106960E940F2195012823392302
:1035F000232B79F4432D4150550BD30102C0AA0F60
:10360000BB1F4A95E2F79D012A213B21232B09F09C
:10361000B9C0F801418640927405C70102960E9424
:103620000F21282FB4010E943821F8016083718393
:10363000569E201911242683C70104960E940F214B
:10364000282FB4010E943821D80112966C9312974A
:1036500013967C931397569E2019112417962C933A
:10366000BAE0EB0EF11C065F1F4FECE8EE16F1041A
:1036700009F0B3CF8CE090E00E940F2190933305C6
:1036800080933205E2EBF3E08FE8DF011D928A952B
:10369000E9F742E851E0FA01649183E691E0FC0128
:1036A0002491222399F030E0220F331FF901E05CCE
:1036B000FE4FA591B491F901E25BFE4F2591349143
:1036C0002FB7F8943C91632B6C932FBFFA01449170
:1036D000FC018491E82FF0E0EE0FFF1FE25BFE4F4C
:1036E0002591349180E091E051E0491709F456C0EA
:1036F0008F5F952F082E01C0990F0A94EAF7F5CF36
:1037000082E08093F9048EEA0E947C0984EA0E9498
:103710007C0960E585ED0E948E096FE388EA0E94CE
:103720008E0960E083ED0E948E0980E40E947C098E
:1037300064E18DE80E948E096BE88DEA0E948E0993
:1037400062E289ED0E948E0965E38BED0E948E098D
:1037500082E30E947C096FEF81E80E948E0986EA6D
:103760000E947C0962E18AED0E948E09C3CC6CE460
:1037700074E082E090E00E942F0F5ECD6D917C910D
:1037800011972ACED80119961C92199718963C9237
:10379000189715969C938E9314973FCF3093AD0353
:1037A0002093AC038093AB0382EB93E09093A4034C
:1037B0008093A3035498E091AC03F091AD03208172
:1037C0003091AB0381E090E001C0880F3A95EAF7B1
:1037D0008095822380831092800081E08093810015
:1037E0001092AF03B59A80916F00806280936F0052
:1037F00080918100887F81608093810086E293E0E0
:1038000056EE452E52E0552ED2011D921D921D926C
:103810001D922D018A179B07B9F764E670E080E0DE
:1038200090E00E94410610927405299A64EF71E0BD
:1038300080E090E00E944106109274052998109251
:1038400073052A9A64EF71E080E090E00E944106DF
:10385000109273052A9810927405299A64EF71E00A
:1038600080E090E00E944106109273052A9A64EF6E
:1038700071E080E090E00E94410610927405299862
:1038800064EF71E080E090E00E94410610927305C1
:103890002A980E94570DE0905703F0905803A0908B
:1038A0005503B090560380905303909054038EEAD2
:1038B00091E00E944C0A40E1742E00E010E8C4013F
:1038C00080239123892B09F4B5C085E692E00E94FC
:1038D0005E0A169507957A947110F1CF84EA91E00B
:1038E0000E944C0A20E1922E00E010E8C5018023DE
:1038F0009123892B09F4A1C087E692E00E945E0A19
:10390000169507959A949110F1CF8AE991E00E945B
:103910004C0A10E1A12C80E8B82EC7018A219B2116
:10392000892B09F48DC089E692E00E945E0AB69464
:10393000A794115091F760ED77E080E090E00E944D
:1039400041060E94570D87EC91E00E944C0A88EBDB
:1039500091E00E944C0A0E94460C909329038093A8
:1039600028039601282B392B20953095309334036A
:10397000209333030E94380B8091320590913305D8
:103980009C0120953095C222D322D0922703C09269
:1039900026030E94800C0E94F9066C5E7F4F8F4FB9
:1039A0009F4F60932F037093300380933103909364
:1039B000320322242A941092370580913304909187
:1039C0003204891709F4ECC0E82FF0E0EE54FC4F04
:1039D000F080F7FE78C090913404891751F020915F
:1039E000390430913A042F5F3F4F30933A042093CB
:1039F000390480933404209235048F2D80768036EC
:103A000011F510923604809133048F5F8093330454
:103A1000C0903404282F2C1987FD10923304809114
:103A2000350490913604291709F45DC0F826F09208
:103A30003504C3CF8DEC91E04ACF8DEC91E05ECFA1
:103A40008DEC91E072CF8F2D829586708E5F809382
:103A500036042091340480913604820F9927991FEF
:103A60008138910584F200E8021BF89440913204F9
:103A700080913404841770F5B42FB81B8B2F80937A
:103A80003204789460913404461738F510E050E021
:103A900062EB73E0C8018E549C4F0E9452216091EA
:103AA000340470E06E547C4FA80182EB93E00E94D6
:103AB00052218091330490913404891B8093330404
:103AC00010923404A0CF8091360481119CCFF092E3
:103AD0003604BFCF802F840FD2CF461B50E070E05A
:103AE0006E547C4FE2CFF8124EC0D12CF601EE544A
:103AF000FC4F6F0120913704309138042F5F3F4F06
:103B00003093380420933704909133049093340415
:103B1000C114D10409F48ACFD092E502C092E40224
:103B2000C114D10409F473C1D60111963C911197C7
:103B3000432F50E012966C91A62FB0E0FD01F69550
:103B4000FE2FEE27F795E795E078F7708F01032BAE
:103B5000152BF6019081F801923B09F44BC1319687
:103B6000913B09F4E2C1F8F4933809F4CEC1903BDB
:103B700009F4D4C19238F9F480E090E0892B09F47B
:103B800046C180E0C8C12091390430913A042F5FCA
:103B90003F4F30933A0420933904D12CC12CB4CF39
:103BA000D12CC12CB9CF9C3B09F4D4C108F0D1C0B1
:103BB000943B09F40DC2953E19F09D3E09F05DC09D
:103BC0003F3009F05AC0D60113968C911397853077
:103BD00009F053C014961C91149711114EC01696FB
:103BE0004C91F6019601295F3F4F81E0942F982375
:103BF00019F0978190689783880F31962E173F07A9
:103C0000A9F7F60116828581803209F443C2813218
:103C1000A1F50780F085E02DD6011D969C91EF3F20
:103C2000FE0709F0E1C1D60119964D915C911A97F2
:103C3000452B09F0D9C11B964D915C914F3F5F4FC9
:103C400009F0D2C197FFE7C2B601655F7F4FC90196
:103C50000E9453108F3789F4F6010385148547813C
:103C60005085E12C30E020E06281CE0101960E9477
:103C7000DB03CE0101960E94FD02E091E402F09187
:103C8000E5028081853E09F0C2C08181803109F062
:103C9000BEC082818F3709F0BAC084818F3709F0A6
:103CA000B6C083818F3709F0B2C0258190E080E0F3
:103CB00030E0A901082E02C0559547950A94E2F715
:103CC00040FF09C0DF01A80FB91F16964C91169747
:103CD000406816964C9301968430910551F72285E1
:103CE00090E080E030E0A901082E02C0559547958C
:103CF0000A94E2F740FF09C0DF01A80FB91F1B9625
:103D00004C911B9740681B964C930196843091050B
:103D100051F78581807F803409F079C08285807F6A
:103D200009F075C086818D3009F071C08781883EA9
:103D300009F06DC08085843009F069C085858130C7
:103D400009F065C08685853009F061C00E941B0BB3
:103D50005EC09D3B09F45BC0903D09F02CCF3076EE
:103D6000303229F0303609F401C1311150C0E0E0A1
:103D7000F0E0EF2B09F44BC0CA019695982F8827E5
:103D80009795879580789F708A0F9B1FE5E05595E2
:103D90004795EA95E1F7242F21700196D6011396F5
:103DA0003C91139714964C91E42FF0E0AF013D370E
:103DB00031F0B0E83B9FA00111244E0F5F1F6F70E0
:103DC00009F4F6C0623009F4F5C0643009F4F4C0B7
:103DD000663009F4F3C0683009F4F2C06A3009F4BF
:103DE000F1C06C3009F4F0C06E3009F4EFC00E94ED
:103DF00000000DC0EE0FFF1F82E090E065FD02C0E5
:103E000081E090E060718E0F9F1F0E940C0F8091E7
:103E10003705882369F080913303909134039C0126
:103E20002095309530933403209333030E94380B50
:103E30000E94F90600912F03109130032091310365
:103E400030913203061717072807390780F40E94BC
:103E5000F9066C5E7F4F8F4F9F4F60932F037093D7
:103E6000300380933103909332030E94EE0C8091D3
:103E70003205909133050E94800C0E94460C4C0143
:103E8000E0903303F090340380912803909129034C
:103E9000882599250091530310915403009510959E
:103EA00008231923312CCC24C394D12C01151105DE
:103EB00009F42EC1C8018C219D21892B11F1F60135
:103EC000E095F095FA8BE98BC4018C219D21892B1B
:103ED00009F4F8C024E0329EF0011124EA51FD4FAC
:103EE00080819181A281B381892B8A2B8B2B09F44C
:103EF000E6C0108211821282138289899A8908236E
:103F000019233394CC0CDD1CD1CF80E090E0892BB9
:103F100009F47DCF81E00E94000079CF462F4072E6
:103F20006071CF010E94170F72CF66FF0CC020E0B6
:103F300030E0232B09F46BCF462F40726071CF0124
:103F40000E94000064CF462F40716072CF010E9432
:103F5000230F5DCF40E050E0452B09F458CF462FAA
:103F600040726071CF010E94000051CF80E090E06C
:103F7000892B09F44CCFD6011396FC9013978F2D03
:103F8000807D803109F043CF1496EC9001E011E080
:103F900041E08F2D802309F040E02E2D2023000FDB
:103FA000612F80E80E9400001F5F153089F72FCF36
:103FB00061E41DCF62E41BCF63E419CF64E417CF43
:103FC00065E415CF66E413CF67E411CF68E40FCF43
:103FD0003C3309F052CEE0E0F0E0EF2B09F417CFCC
:103FE0008CE30E94000013CF91111FC0D6011996D7
:103FF0006D917C91A601455F5F4FCF010E94A10F9B
:104000008F3709F04FC0F60103851485218532856D
:1040100047815085E12C6281CE0101960E94DB032D
:10402000CE0101960E94FD02F2CE97FF23C096FDBD
:1040300021C0B601655F7F4FC9010E94F30F8F3722
:10404000C9F4F601038514854781508560E8E62EA2
:1040500030E020E06281CE0101960E94DB036AE03D
:1040600070E080E090E00E944106CE0101960E943F
:10407000FD0211E0D6011D968C911D9786FF1CC094
:104080001B966D917C911C9717968D919C910E9427
:10409000F60ABDCE438554856185728587819085FA
:1040A0000E944A0F87FDE9CDD6016C916F77482FAA
:1040B00084EB0E94C103ABCE1111A9CEDECDEC285A
:1040C000FD281BCF3FE03315F0F0A32CB12CF501F8
:1040D000EE0FFF1FE158FC4F608071806114710486
:1040E00091F00E94F906F501EE0FFF1FEE0FFF1F82
:1040F000EA51FD4F660D771D811D911D608371830F
:1041000082839383FACE49895A89E422F522F5CE37
:10411000909229038092280306EE12E0CC24C394E7
:10412000D12CD8018D909D90AD90BD908D018114C2
:104130009104A104B10491F00E94F9068616970635
:10414000A806B90658F4F801349710821182128239
:104150001382C60180959095E822F922CC0CDD1CD3
:1041600040165106F1F6C7010E94380B80912E03CC
:1041700090913605981731F0882309F446C0F0E095
:10418000E0E009950E94F90600912A0310912B03A3
:1041900020912C0330912D030617170728073907A4
:1041A00060F50E94F90666507F4F8F4F9F4F6093D6
:1041B0002A0370932B0380932C0390932D03C090BC
:1041C0002803D0902903E0902603F0902703009164
:1041D00053031091540360E082E00E94A908B601E5
:1041E000C8010E94790A60E084E00E94A908B70132
:1041F000C801809590950E94790A80E090E0892B13
:1042000009F4D9CB0E940000D6CB81E080932E0325
:1042100080937305B7CF992309F4E8CE2BCFA8E19B
:10422000B0E042E050E00C942A21262FF999FECF0D
:104230001FBA92BD81BD20BD0FB6F894FA9AF99AC3
:104240000FBE019608950E941521272F0C94162168
:10425000DC01CB01FC01F999FECF06C0F2BDE1BD46
:10426000F89A319600B40D9241505040B8F7089535
:10427000AA1BBB1B51E107C0AA1FBB1FA617B7078C
:1042800010F0A61BB70B881F991F5A95A9F78095A8
:104290009095BC01CD010895EE0FFF1F0590F4919C
:1042A000E02D09946817790768F4FB01DC01E40F3D
:1042B000F51FA40FB51F02C002900E92415050404E
:1042C000D8F708950C946C23AEE0B0E0EAE6F1E292
:1042D0000C941C240D891E8986E08C831A83098323
:1042E0008FEF9FE79E838D83AE01475E5F4F6F899F
:1042F000788DCE0101960E9487212F813885020F8B
:10430000131FF80110822E96E4E00C943824ABE0E1
:10431000B0E0EDE8F1E20C940E247C013B018A014F
:10432000FC0117821682838181FFC8C1CE010196EC
:104330005C01F7019381F30193FD859193FF8191D6
:104340003F01882309F453C1853239F493FD8591E7
:1043500093FF81913F01853229F4B70190E00E94DB
:104360008023E7CF912C212C312CFFE1F31538F07D
:104370008B3211F190F4803209F1833229F137FC4C
:104380003CC020ED280F2A3050F536FE20C08AE0D0
:10439000989E200D1124922E06C08D3291F080330C
:1043A00071F7689430F8F30193FD859193FF819143
:1043B0003F018111DACF21C0689431F8689432F856
:1043C000F2CF689433F8EFCF689434F8ECCFEAE09A
:1043D0002E9E200D1124222E689435F8E4CF8E32C3
:1043E00029F436FC04C1689436F8DDCF8C3619F414
:1043F000689437F8D8CF8836B1F2982F9F7D9554BE
:104400009330E0F08336A1F18337C1F1833509F0B1
:1044100063C02801F2E04F0E511CF801C080D1802A
:10442000692D70E036FC02C06FEF7FEFC6010E947D
:1044300061234C01689437F882010AC00C5F1F4F5A
:10444000FFE3F98388248394912C6501E89437F87D
:1044500033FE2DC0522C8114910471F5552009F4BE
:1044600068CFB70180E290E00E9480235A94F6CF93
:10447000F801808189830E5F1F4FE4CF2801F2E0AD
:104480004F0E511CF801C080D180692D70E036FCC0
:1044900002C06FEF7FEFC6010E9475234C018201BD
:1044A000D5CFB70180E290E00E9480232A9428149F
:1044B000190409F0B0F7CECFF60137FC859137FE2D
:1044C00081916F01B70190E00E94802351105A94AE
:1044D000F1E08F1A9108BFCF843619F0893609F0C0
:1044E00077C0F80137FE6BC0608171818281938152
:1044F0000C5F1F4FF32DFF763F2E97FF09C090955D
:104500008095709561957F4F8F4F9F4F689437F8D6
:104510002AE030E0A5010E94B023C82ECA188C2CD6
:10452000432C36FE0CC0E89440F8C91440F434FE25
:1045300005C032FC03C0F32DFE7E4F2E892C44FEB5
:1045400095C0FE01EC0DF11D8081803309F087C01C
:10455000242D297E422E842D8870582E43FC95C030
:1045600040FE8FC09C2C821418F42C0C922C9818AE
:1045700044FE91C0B70180E390E00E94802342FE98
:1045800009C088E790E041FE02C088E590E0B701ED
:104590000E948023C91408F48AC0CA94D12C9FEFCA
:1045A000C91AD90ACA0CDB1CF60182916F01B70146
:1045B00090E00E948023AC14BD04B1F74FCF60811E
:1045C0007181072E000C880B990B0E5F1F4F92CF45
:1045D000D32CE894D4F82AE030E0853739F1232D44
:1045E000297FD22E8F3601F148F48835A9F0F701E2
:1045F000868197812B96E2E10C942A24803749F03A
:104600008837A9F7D4FE02C06894D2F820E130E0E0
:104610000DC06894D4F8F6CF34FE03C0822F8660B4
:10462000D82E20E132E002C028E030E0F801D7FEC9
:104630000FC060817181828193810C5F1F4FA50142
:104640000E94B023C82ECA183D2CE89437F867CFD3
:104650006081718190E080E00E5F1F4FF0CF42FCDF
:1046600002C0839478CF8394839475CF842D867809
:1046700009F471CFF6CFB70180E290E00E94802369
:1046800083948214C0F3512C73CF522C5818821487
:1046900008F46ECFF8CF842D867809F47BCF8BE2B7
:1046A00041FE80E247FC8DE2B70190E071CFB70197
:1046B00080E390E00E9480239A946CCF8FEF9FEF6D
:1046C00099CFFC010590615070400110D8F780959A
:1046D00090958E0F9F1F0895FB01DC0102C0019091
:1046E0000D9241505040D8F70895FC016150704040
:1046F00001900110D8F7809590958E0F9F1F089517
:104700000F931F93CF93DF93182F092FEB018B810A
:1047100081FD09C01FEF0FEF812F902FDF91CF9107
:104720001F910F91089582FF14C02E813F818C81CB
:104730009D81281739073CF4E881F981CF01019662
:104740009983888310838E819F8101969F838E83B6
:10475000E3CFE885F985812F0995892BA1F3DACF7D
:10476000FA01AA27283051F1203181F1E8946F93A2
:104770006E7F6E5F7F4F8F4F9F4FAF4FB1E03ED048
:10478000B4E03CD0670F781F891F9A1FA11D680FE6
:10479000791F8A1F911DA11D6A0F711D811D911D19
:1047A000A11D20D009F468943F912AE0269F11248E
:1047B0003019305D3193DEF6CF010895462F4770F2
:1047C000405D4193B3E00FD0C9F7F6CF462F4F704D
:1047D000405D4A3318F0495D31FD4052419302D0AB
:1047E000A9F7EACFB4E0A695979587957795679551
:1047F000BA95C9F700976105710508959B01AC0151
:104800000A2E06945795479537952795BA95C9F777
:10481000620F731F841F951FA01D08952F923F9252
:104820004F925F926F927F928F929F92AF92BF92C0
:10483000CF92DF92EF92FF920F931F93CF93DF936C
:10484000CDB7DEB7CA1BDB0B0FB6F894DEBF0FBEC9
:10485000CDBF09942A88398848885F846E847D8416
:104860008C849B84AA84B984C884DF80EE80FD8018
:104870000C811B81AA81B981CE0FD11D0FB6F8948E
:10488000DEBF0FBECDBFED010895F894FFCFFFFF4F
:10489000FFFF00E100000000000080B08000001079
:1048A0002B002B002B00250025002E0028002800BF
:1048B0003100310031003100250025003100310088
:1048C0002C0B2C0B2C0B340B340B280B300B300B1C
:1048D000240B240B240B240B340B340B240B240B40
:1048E000400540054005460546053D054305430591
:1048F0003A053A053A053A05460546053A053A05A8
:104900004020808010048040804020104020020120
:104910003F053F053F05450545053C054205420568
:10492000390539053905390545054505390539057F
:1049300000C1808100000000000000630474068450
:10494000047904CA048804A60400000000DD087C81
:1049500008A50A52087508620853082E0031003075
:104960000020412534752020562533752E25303200
:10497000752000677265656E007265642020004EC8
:104980006F3A253375202D20004E6F3A2533752060
:1049900000433A25752C20543A25750041442535AD
:1049A00075205641253575004E6F7469667920571C
:1049B00052495445004E6F7469667920524541440E
:1049C0000042726F61646361737400696E2050729B
:1049D0006F67206D6F646500415225357520414435
:1049E0002535750020303A2530356420313A2530A0
:0A49F0003564004F00530049000039
:107C0000CFEFDAE0DEBFCDBF11248FEF87B984B7A5
:107C100014BE98E19093600010926000882321F4D4
:107C200091E080E488B915C088279927EE27FF27BF
:107C300045915591840F951FE030D1F7FC37C1F77E
:107C4000892B80E888B9EE27FF27099480E288B95C
:107C5000992790930001F89481E080938100EE27AA
:107C6000FF27109202014C9BFECFA4D08823CCF7B3
:107C7000853EB9F79FD08031A1F7C3E09BD08F3705
:107C800081F7CA95D9F7C3E0D1E06CD0803449F7C9
:107C900069D082958F70809301018CD08091020110
:107CA0009FEF891358D0909101019923E9F4C3E023
:107CB000D1E089918D30A9F68991883E91F699910C
:107CC0002196899180FF05C0953019F081FFC9CFB9
:107CD000E0F421968991813021F689918530A9F4CB
:107CE00081E080930001BBCF80910001882369F07F
:107CF000913061F490910401809105018E179F07E6
:107D000019F480910301811126D0ABCF923011F488
:107D10000BD0A7CF9430C9F7C3E0D1E088E0199227
:107D20008A95E9F701D0FECF44E0A3E0B1E00D90E1
:107D30001D9051E057BFE895112432964150B9F794
:107D4000CF018F779070892B29F421D0E03011F486
:107D5000FC3709F0089588E128E0809360002093C3
:107D60006000FFCFFF92BF9384E0F82E23D0B82F9E
:107D7000807F809301011ED0B0FD80688993B69505
:107D8000FA94C9F7BF91FF90809101010895EF0126
:107D90003197E078CF01880F991F98B983E004D01C
:107DA00085E002D0FE01089587BFE89507B600FC84
:107DB000FDCF08954C99FECF20918400309185002D
:107DC00020563A4F309389002093880098E086959A
:107DD000A6B3A260A6BBA6B3A1FFFDCF4C99806855
:107DE00020543C4F3093890020938800915079F7BC
:107DF000A6B3A260A6BBA6B3A1FFFDCF4C9BABDF91
:0C7E0000A0910201A827A09302010895A0
:027FFE0005017B
:00000001FF
