:020000040000FA
:100000000C94C9020C94F1020C94F1020C94F102CC
:100010000C94F1020C94F1020C94F1020C94F10294
:100020000C94F1020C94F1020C948B100C94FA10C5
:100030000C94F1020C94F1020C94F1020C94F10274
:100040000C9415150C9476130C94F1020C94F10297
:100050000C94F1020C94F1020C94F1020C942C1308
:100060000C94F1020C94F1020C94F1020C94F10244
:100070000C94F1020C94F1020C94F1020C94F10234
:100080000C94F1020C94F1020C94F1020C94F10224
:100090000C944B150C94F1020C94F1020C94F102A7
:1000A0000C94F1020C94F1020C94F1024C4E435664
:1000B00020446973636F7665720A004C4E43562084
:1000C00050726F672053746172740A004C4E43562D
:1000D0002050726F672053746F70004C4E4356204F
:1000E00057726974650A004C4E435620526561642C
:1000F0000A000000000200090F0000030401000CC8
:1001000000000000000000000000000000000000EF
:10011000000A5365742064656661756C74204164DF
:100120007200436865636B20454550524F4D3A0A53
:10013000000A20204C657365204C4E4356730A001C
:1001400000000000240027002A002D0030000000DD
:100150000000250028002B002E00310004040404B8
:10016000040304050202020204030202020206065C
:100170000606060604040202020404040802011032
:1001800040804010204080408008020401804020D0
:10019000100201108010204040200A496E766572DE
:1001A000743A0A000A53656E736F723A0A000A4F76
:1001B00075747075743A0A000A4F757470757420FE
:1001C00053746174653A000A496E707574205374F3
:1001D0006174653A0A000A2020496E69743A0A007F
:1001E000080B0002020200000904000001020200E4
:1001F0000005240010010524010101042402060564
:1002000024060001070581031000400904010002D3
:100210000A000000070502024000000705830240B3
:1002200000000403090412010002EF02014041230F
:10023000368000010102030141726475696E6F200E
:100240004C4C430041726475696E6F204C656F6E53
:100250006172646F00453A53776974636820537420
:100260006174650A00453A53776974636820526582
:10027000706F72740A00453A53776974636820524C
:10028000657173740A00453A53656E736F720A00A4
:1002900000000000000000000000065F5F06000094
:1002A0000003030003030000147F7F147F7F14000A
:1002B000242E6B6B3A120000466630180C66620002
:1002C000307A4F5D377A48000004070300000000D1
:1002D000001C3E63410000000041633E1C00000022
:1002E000082A3E1C1C3E2A0808083E3E080800005A
:1002F0000080E0600000000008080808080800000E
:1003000000006060000000006030180C060301006F
:100310003E7F71594D7F3E0040427F7F404000004C
:10032000627359496F260000226349497F360000F5
:10033000181C16537F7F5000276745457D39000004
:100340003C7E4B4979300000030371790F070000B0
:10035000367F49497F360000064F49693F1E00003D
:1003600000006666000000000080E66600000000F5
:1003700000081C36634100002424242424240000A7
:10038000004163361C080000020351590F060000AB
:100390003E7F415D5D1F1E007C7E13137E7C00004E
:1003A000417F7F49497F36001C3E63414163220003
:1003B000417F7F41637E1C00417F7F495D41630037
:1003C000417F7F491D0103001C3E63415173720050
:1003D0007F7F08087F7F000000417F7F4100000091
:1003E0003070414F7F310000417F7F081C776300F0
:1003F000417F7F41406070007F7F0E1C0E7F7F0039
:100400007F7F060C187F7F001C3E6341633E1C000B
:10041000417F7F49090F06001E3F21717F5E00006A
:10042000417F7F09197F6600266F4D5973320000A6
:1004300003417F7F410300007F7F40407F7F0000BA
:100440001F3F60603F1F00007F7F3018307F7F00BC
:1004500043673C183C674300074F78784F0700001C
:10046000476371594D677300007F7F414100000071
:100470000103060C183060000041417F7F0000003E
:10048000080C0603060C0800808080808080808035
:100490000000030704000000207454543C7840001E
:1004A000417F3F4848783000387C44446C28000045
:1004B000307848493F7F4000387C54545C18000035
:1004C000487E7F490302000098BCA4A4F87C040085
:1004D000417F7F08047C780000447D7D400000005F
:1004E00060E08080FD7D0000417F7F10386C44001B
:1004F00000417F7F400000007C7C18381C7C780025
:100500007C7C04047C780000387C44447C38000007
:1005100084FCF8A4243C1800183C24A4F8FC8400B3
:10052000447C784C041C1800485C5454742400002B
:1005300000043E7F442400003C7C40403C7C400062
:100540001C3C60603C1C00003C7C7038707C3C00B3
:10055000446C3810386C44001CBCE0E03C1C0000CB
:100560004C64745C4C64000008083E774141000014
:1005700000000077770000004141773E0808000046
:10058000080C040C080C040000000000000000002F
:100590006A1611241FBECFEFDAE0DEBFCDBF12E036
:1005A000A0E0B1E0E4E0F8E402C005900D92AC38C0
:1005B000B107D9F725E0ACE8B2E001C01D92A73938
:1005C000B207E1F712E0C9ECD2E004C02197FE01C6
:1005D0000E940721C83CD107C9F70E942F170C942D
:1005E00000240C94000091E090939B048093BD0440
:1005F00010929C041092BE040895CF93DF93FC01E7
:1006000029E18EE241E050E033E071E090819076A4
:100610009036D1F491819093CD03A091CD03A15058
:100620001092CC039FEF6091CC036A1790F4C091B5
:10063000CC03CE0FDF2FD11D688196276091CC03AC
:100640006F5F6093CC03EFCF9081929596709E5F21
:10065000E2CFAE0FBF2FB11D9C93F8949091CB03C6
:10066000913059F49091CA03981738F01092CB0347
:1006700090916F009D7F90936F0078949091CB0341
:10068000913039F49091CA03943108F4BFCF70E0EF
:10069000BDCF9091CB0391110EC0F89490916F0053
:1006A0009F7D90936F00B59B09C090916F00906201
:1006B00090936F0078947111A9CF51C0A091C80395
:1006C000B091C9039C916091C703EA0102C0CC0FAD
:1006D000DD1F6A95E2F79C2B9C93609184007091DA
:1006E00085006A5A7C4F7093C6036093C50360917E
:1006F000C5037091C6037093890060938800789455
:10070000F093C403E093C3031092CC031092C2038E
:1007100090819093C1033093CB031092CA03B19A96
:1007200090916F00926090936F009091CB03933003
:10073000E1F39091C203992381F0E091BF03F0911E
:10074000C003E757FF4F8081918101969183808399
:1007500083E090E0DF91CF9108959091CB038B31AE
:1007600008F08150215009F050CF809159049091A8
:100770005A04019690935A048093590486E090E0BD
:10078000E9CFCF93DF93CDB7DEB760970FB6F8947C
:10079000DEBF0FBECDBF89836A834B83CE01019636
:1007A0000E94FD0260960FB6F894DEBF0FBECDBF6B
:1007B000DF91CF910895EF920F931F93CF93DF9323
:1007C000FC0185EE80838FE0818385E08283613048
:1007D00041F589E483838BE484838FE185831682EA
:1007E000508747833287218714870387E586DF0197
:1007F0001796AF01425F5F4F91E08D9187FF07C071
:100800002681292B2683ED0121978F778883990FE5
:10081000A417B50791F7DF91CF911F910F91EF903A
:10082000089563831482D9CFFC0180916A038823E1
:1008300011F13FB7F89482E08093E9002091F20033
:10084000822F90E01816190614F481E090E08823B6
:1008500039F0289844E6409369034091F1004083C1
:10086000222339F02091F200211103C02BE62093BE
:10087000E8003FBF08958FEF9FEF08952FB7F894DA
:1008800083E08093E9009091E800892F807295FFC2
:1008900004C09091F20080E4891B2FBF08958091DD
:1008A000610381110DC082E080935D0384E0809339
:1008B0005E031092600310925F0381E080936103F6
:1008C0008DE593E00895CF93DF931F92CDB7DEB708
:1008D0006983DC01ED91FC910280F381E02D41E020
:1008E00050E0BE016F5F7F4F09950F90DF91CF9170
:1008F000089583E08093E9008091F200882319F045
:100900008AE38093E80008950E943E0490E00895F1
:10091000CF93DF931F92CDB7DEB7FC018485958519
:1009200097FD08C02FEF3FEF358724870F90DF91A9
:10093000CF910895CE0101960E941404019719F4F5
:10094000898190E0F3CF8FEF9FEFF0CF0F931F934C
:10095000CF93DF931F92CDB7DEB78C01FC01848566
:10096000958597FF0BC0CE0101960E941404019754
:1009700071F4898190E0F80195878487F801848576
:1009800095850F90DF91CF911F910F9108958FEF73
:100990009FEFF1CFFC018485958597FD0BC09FB734
:1009A000F89482E08093E9008091F2009FBF90E08C
:1009B000019608959FB7F89482E08093E9008091B2
:1009C000F2009FBF90E00895409157035091580363
:1009D000209155033091560342175307B4F4909178
:1009E000E8009570E1F39091E80092FD19C08093C2
:1009F000F100809157039091580301968F739927C6
:100A0000892B19F48EEF8093E80080915703909121
:100A100058030196909358038093570381E00895FB
:100A200080E00895EF92FF920F931F93CF93DF938F
:100A3000F82E192FE62E042F81E0860F880F0E94D2
:100A4000E40483E00E94E404CF2DD12FEC0EFD2EB0
:100A5000F11CCE15DF05B9F007FF13C0FE0184912C
:100A60000E94E404182F80E00E94E4048123219670
:100A70008111EFCFDF91CF911F910F91FF90EF90F8
:100A800008958881EDCF81E0F5CFDF92EF92FF925C
:100A90000F931F93CF93DF93D82E8A01EB017B0135
:100AA000E40EF51ECE15DF0559F0D7FE12C0FE018B
:100AB00084910E94E40421968111F4CF0FEF1FEF7F
:100AC000C801DF91CF911F910F91FF90EF90DF90C0
:100AD00008958881EECF0F931F93CF93DF931F92DA
:100AE000CDB7DEB782E0898342E450E060EE71E08A
:100AF00080E80E9445050E944F04DC0112960D918A
:100B00001C910115110589F0D801ED91FC9102802D
:100B1000F381E02DBE016F5F7F4FC801099597FDFE
:100B200004C0F80100851185ECCF89810F90DF9119
:100B3000CF911F910F910895615030F02091F100F5
:100B4000FC0120830196F8CF289884E680936903FE
:100B5000089508950895282F30E0F901EE50FF4FD1
:100B60009491F901E558FE4F8491245A3E4FF901C2
:100B70002491222309F430C09923E9F091509F3049
:100B8000D0F4E92FF0E0E953FA4F0C940721F50572
:100B9000F905D605ED05F105DB05DB05DB05FC05F3
:100BA000020606060A061006DB0514069091800070
:100BB0009F7790938000E22FF0E0EE0FFF1FE25B43
:100BC000FE4FA591B4919FB7F894EC91611132C09A
:100BD00080958E238C939FBF0895909180009F7D78
:100BE000E8CF90918000977FE4CF94B59F7794BD34
:100BF000E2CF94B59F7DFBCF909190009F7790932B
:100C00009000D9CF909190009F7DF9CF9091900066
:100C1000977FF5CF9091C0009F779093C000CBCF86
:100C20009091C0009F7DF9CF9091C200977F9093E3
:100C3000C200C1CF8E2BCECF3FB7F8948091F60281
:100C40009091F702A091F802B091F90226B5A89B05
:100C500005C02F3F19F00196A11DB11D3FBFBA2F4E
:100C6000A92F982F8827BC01CD01620F711D811D0E
:100C7000911D42E0660F771F881F991F4A95D1F793
:100C800008958F929F92AF92BF92CF92DF92EF9290
:100C9000FF926B017C010E941C064B015C01C11498
:100CA000D104E104F104B9F00E941C066819790925
:100CB0008A099B09683E73408105910580F321E014
:100CC000C21AD108E108F10888EE880E83E0981E68
:100CD000A11CB11CE4CFFF90EF90DF90CF90BF90AC
:100CE000AF909F908F9008958F929F92AF92BF92F6
:100CF000CF92DF92EF92FF920F931F93CF93DF93E8
:100D00006C017B018A0180910B01882309F45CC08E
:100D100080916A03882309F457C080915C0380FFA7
:100D200005C08091E00082608093E000E801B12C72
:100D30008AEFA82E93E0892E2AE3922E209711F4B1
:100D4000BB20D9F10E943E0481110AC0AA94AA20B6
:100D5000D9F161E070E080E090E00E944106EECFC2
:100D60008C171D0611F00CF08C2F9FB7F894809211
:100D7000E9002091E80025FD02C09FBFDFCF282FAA
:100D800030E0C21BD30BF701815020F0419140931A
:100D9000F100FACFE20EF31EBB2021F09092E800A2
:100DA000B12CEBCF8091E80085FDE7CF9092E80071
:100DB000BB24B394209709F3F3CF5D9884E6809326
:100DC0005B03101611063CF081E090E0F60193837E
:100DD000828310E000E0C801DF91CF911F910F9155
:100DE000FF90EF90DF90CF90BF90AF909F908F904B
:100DF00008952FB7F8946091F2027091F3028091F8
:100E0000F4029091F5022FBF08952091CD02260F94
:100E10003327331F21323105ECF420919504FC0176
:100E200090E080E0243069F082E00895A091CD0246
:100E30002191AC0143555D4FA40FB52FB11D2C93EB
:100E40000196861798F38091CD02680F6093CD02CA
:100E500080E0089581E008951092950481E08093E8
:100E6000940410926F0461E082E00E94AB0561E09F
:100E700083E00E94AB05E9EBF0E080818E7F808308
:100E800080818D7F808388E48093B80085E480939F
:100E9000BC000895CF93DF9391E09093AC02882338
:100EA000B9F0C091B800D091BA008091BC008A7BA3
:100EB0008093BC0060E082E00E94AB0560E083E0CC
:100EC0000E94AB050E942C07D093BA00C093B800D3
:100ED000DF91CF910895CF92DF92EF92FF920F931F
:100EE0001F93CF93DF93D091BE0481E0D13208F0FD
:100EF0009CC0C091BD040E941C066B017C018091C6
:100F0000950481116CC082E08093950481E0809308
:100F100094048FEF8093930410929204D0939104E1
:100F2000ADE9B4E0E1E7F4E080E0D8138DC01092C1
:100F3000700480917004CC0FC82BC0937004809112
:100F40006F04813009F084C010926F040E941C0667
:100F50006B017C01809170048093BB0080919704A9
:100F600090919804A0919904B0919A04892B8A2BAE
:100F70008B2BA1F00E941C060091970410919804FD
:100F80002091990430919A046C197D098E099F096A
:100F9000061717072807390708F442C08091BC00DC
:100FA00083FDD8CF85EC8093BC000E941C066B01AA
:100FB0007C0180919504823009F44CC080919304A7
:100FC0008F3F09F469C080919304803209F466C0B0
:100FD00080919304803309F463C084E026C080913B
:100FE000970490919804A0919904B0919A04892B48
:100FF0008A2B8B2B09F483CF0E941C060091970447
:10100000109198042091990430919A046C197D09EB
:101010008E099F09061717072807390708F06FCFB1
:10102000809196040E944A0785E010929C041092D9
:10103000BE0410929B04DF91CF911F910F91FF90FE
:10104000EF90DF90CF9008959D9191938F5F6DCF3A
:1010500085EEA9CF8091970490919804A09199046E
:10106000B0919A04892B8A2B8B2B09F4A2CF0E9472
:101070001C060091970410919804209199043091D6
:101080009A046C197D098E099F090617170728070E
:10109000390708F08ECFC4CF80E0C7CF82E0C5CF3C
:1010A00083E0C3CF0895E091FF028091FE02E8172C
:1010B00030F4F0E0E457FD4F808190E008958FEF29
:1010C0009FEF08959091FF028091FE022FEF3FEF76
:1010D000981748F4E92FF0E0E457FD4F208130E005
:1010E0009F5F9093FF02C90108958091FE02909145
:1010F000FF02891B990B0895CF92DF92EF92FF9226
:101100000F931F93CF93DF937C01CB018A01209132
:101110009B04222389F0EB016B01C40ED51ECC1574
:10112000DD0569F06991D701ED91FC910190F081A5
:10113000E02DC7010995F3CF642F0E940507C80170
:10114000DF91CF911F910F91FF90EF90DF90CF90A3
:10115000089590911105992379F1883068F56031EF
:1011600058F5809316056093170590911805890F1F
:10117000883008F088508F70806B80930D01660F67
:10118000660F660F80911505680F862F8F7080930C
:101190000F0162956F706061609311018091140579
:1011A0000E94F30246E050E06CE071E08AE195E0D5
:1011B0000E947C080C946B070895CF93DF931F92D5
:1011C000CDB7DEB7698320919B042223F9F02091EB
:1011D000BE04203258F021E030E0FC01338322834A
:1011E00090E080E00F90DF91CF91089580919C0472
:1011F000E82FF0E0E356FB4F998190838F5F809357
:101200009C048093BE0481E090E0ECCF61E0CE01CD
:1012100001960E940507F7CF682F8AE195E00C94AC
:10122000DD080F931F93CF93DF93909111059923BE
:1012300009F457C080931605109217059091180570
:10124000890F883008F088508F70806B80930D0173
:1012500010920F0180E180931101809114050E948A
:10126000F30246E050E06CE071E08AE195E00E9414
:101270007C080E946B0780910F059091100506E194
:1012800016E0019711F400E118E0C0E08091140528
:101290000E94F30280E490E00E940C09D0E090E00C
:1012A00080E00E940C09DF5F0D13F9CF0E946B07ED
:1012B000CF5F1C13EBCF8091150580930F018091B8
:1012C00014050E94F30246E050E06CE071E08AE110
:1012D00095E00E947C08DF91CF911F910F910C94B3
:1012E0006B07DF91CF911F910F91089586E00E94C7
:1012F000110985E00C941109CF93C82F8091140532
:101300000E94F30290E080E00E940C096C2F8AE1B9
:1013100095E00E94DD08CF910C946B07CF93DF938B
:10132000D82FC62F809114050E94F30290E080E030
:101330000E940C096D2F8AE195E00E94DD086C2F58
:101340008AE195E00E94DD08DF91CF910C946B0754
:10135000CF9380911105882391F0C0E08C2F0E94DB
:101360001109CF5FC830D1F71092180560E083ED06
:101370000E948E0960E080E0CF910C94A908CF9183
:101380000895109217052091120530911305909140
:1013900016052330310551F5973069F58091180510
:1013A0008F5F883000F58093180560911805660FEF
:1013B000660F660F83ED0E948E09809116058830B6
:1013C00010F01092160560911705809116050E9485
:1013D000A9088091120590911305039784F08091DC
:1013E00016050C94110910921805DFCF811103C066
:1013F0002230310511F79F5F90931605DECF0895D7
:101400000F931F93CF93DF9390911105992309F4C4
:101410003EC08A3039F481E0DF91CF911F910F9166
:101420000C94C10990EE980F903688F5C82F8091E2
:101430001705803118F080E00E94C109C052DD0B11
:1014400083E0CC0FDD1F8A95E1F7C057DD4F809117
:1014500014050E94F30280E490E00E940C098E01C2
:10146000085F1F4FFE01649121968091190581113B
:1014700060958AE195E00E94DD08C017D10791F7D9
:101480000E946B07809117058F5F80931705DF918E
:10149000CF911F910F910895CF93DF932091110564
:1014A000222349F0EC01FE0184912196882319F052
:1014B0000E94000AF8CFDF91CF910895CF93DF9378
:1014C00020911105222339F0EC018991882319F02C
:1014D0000E94000AFACFDF91CF910895CF93DF9356
:1014E000EC0187E00E941109CE01DF91CF910C94AD
:1014F0005E0ACF92DF92EF92FF921F93CF93DF931A
:101500007C016B0110E1C0E0D0E8C7018C239D2372
:10151000892B81F08DEE91E00E945E0AD695C795E9
:10152000115099F7DF91CF911F91FF90EF90DF90CD
:10153000CF900895C6018C239D23892B19F08FEE3F
:1015400091E0EACF81EF91E0E7CF90E080E008956D
:101550001F93CF93DF93142FFB0131970097D9F49A
:101560004F2F4F70BF01769567956F77E0FD11C0E3
:1015700040641111406182EB0E94C10360917103CC
:101580007091720390E080E0DF91CF911F910C94F5
:1015900041064066EECFEF01CC0FCD2FCC1FDD0B07
:1015A000D195CF70DE2FDF770197C1F44C2F111149
:1015B00013C040616D2F80EB0E94C10360917903DD
:1015C00070917A0390E080E00E9441061111C062A0
:1015D0004C2F6D2F80EBD0CF4063ECCF2111C06139
:1015E0001111C0624C2F6D2F81EBC6CF0F931F934B
:1015F000CF93DF938C01EB010E9476098CEC90E095
:101600000E944C0A80915205882381F08091020348
:10161000909103038017910749F480910003909102
:101620000103C817D90711F410925205DF91CF9129
:101630001F910F91089510929005299AF89414BE65
:10164000E0E0FEE3099408959091650589230895EB
:1016500090916D05892308959091750589230895CA
:1016600090917D058923089590918505892308959A
:101670002F923F924F925F926F927F928F929F92A2
:10168000AF92BF92CF92DF92EF92FF920F931F9390
:10169000CF93DF935C01C0907303D0907403C09428
:1016A000D094609075037090760340906F035090D3
:1016B0007003009153031091540308271B250C213C
:1016C0001D21F12CC1E0D0E0312C4EE4842E45E008
:1016D000942E0115110509F46FC0CE018C219D21B6
:1016E000892B09F48CC08FE08F1508F488C04F2D2A
:1016F00050E0FA01EE0FFF1FE558FC4F6081718149
:101700006115710509F47BC0CE018A219B21EE246D
:10171000E394009709F4E12C98012C233D23232B1B
:1017200009F1892BE9F020914E0530914F05E6E251
:10173000F5E0818581110CC08085882349F08150B6
:10174000990B4817590721F4848195812827392757
:101750003A968E169F0669F730934F0520934E05F3
:1017600091E001C090E0222423942F0C9E012621B9
:101770003721232BD9F59E0124213521232B09F470
:1017800047C09E012095309502231323CC0FDD1F07
:1017900098012C233D23232B31F121E0C5018C231B
:1017A0009D23892B09F420E04E2D82E090E00E94D9
:1017B000A80AF22C3E2C23C0B0925403A0925303EB
:1017C000DF91CF911F910F91FF90EF90DF90CF901D
:1017D000BF90AF909F908F907F906F905F904F9051
:1017E0003F902F900895992321F3D7CFF0E0E0E0C8
:1017F000992329F0232D4E2DCF010E94A80ACE0156
:101800008095909508231923F394CC0FDD1F61CFA9
:10181000E1E0F0E0EDCFCF92DF92EF92FF920F93F5
:101820001F93CF93DF93C0907303D0907403C09441
:10183000D094D0E0C0E001E010E0F12CE12CC60132
:1018400080239123892B89F0FE01EE0FFF1FEE5CB0
:10185000FE4F0190F081E02DDE01AE56BE4F8C911F
:101860000995882311F0E02AF12A000F111F219613
:10187000C031D10521F7C701DF91CF911F910F91A1
:10188000FF90EF90DF90CF900895CF93DF93DC012E
:10189000209146033091470328273B27809173030B
:1018A000909174032823392380E041E050E0211512
:1018B000310541F1B90164237523672BD9F0682FF5
:1018C00070E0FB01EE0FFF1FEE5EFE4F0190F08116
:1018D000E02D6E567E4FEB019881BA016A237B237F
:1018E000672B61F06081962B9083BA0160957095AB
:1018F000262337238F5F440F551FD9CF60819095E2
:101900009623F2CFB0934703A0934603DF91CF9184
:101910000895FC0192812081292726278581382F6F
:101920003223309535836681462F42233427368310
:10193000682B60956223892F86278283909569237F
:101940009381692B63839181892311F494E69783B2
:101950009781915011F09783089594E19783948132
:10196000892B848308950F931F93809162058823A8
:1019700029F063B183E895E00E94890C80915F05AE
:10198000882329F066B18BE795E00E94890C80914D
:101990005C05882329F069B183E795E00E94890CF2
:1019A00080915905882329F06CB18BE695E00E945F
:1019B000890C80915605882329F06FB183E695E064
:1019C0000E94890C80918F05811104C0809190053F
:1019D000882359F10E94F9060091BB031091BC03C2
:1019E0002091BD033091BE0306171707280739075A
:1019F000E0F40E94F9066C507E4F8F4F9F4F60932A
:101A0000BB037093BC038093BD039093BE0380918E
:101A10008F05882319F01A9B0BC02A988091900596
:101A2000882319F0199B06C029981F910F910895DA
:101A30002A9AF4CF299AF9CFCF93DF930E94A8096D
:101A4000CFE0D5E081E08A871F928F931F928AE0D2
:101A50008F9385E08F9388EE8F9383EF91E09F9330
:101A60008F938DE594E09F938F930E941F218DE5C6
:101A700094E00E945E0A1A868DB79EB70A960FB64A
:101A8000F8949EBF0FBE8DBFDF91CF9108952F9226
:101A90003F924F925F926F927F928F929F92AF92FE
:101AA000BF92CF92DF92EF92FF920F931F93CF934B
:101AB000DF93CDB7DEB72A970FB6F894DEBF0FBE1F
:101AC000CDBFE0915005F0915105E617F707E1F41D
:101AD00081E0809353052A960FB6F894DEBF0FBEBF
:101AE000CDBFDF91CF911F910F91FF90EF90DF90CD
:101AF000CF90BF90AF909F908F907F906F905F90AE
:101B00004F903F902F900895E0917303F0917403EC
:101B1000FC83EB83E0917503F0917603FE83ED8304
:101B2000E0917703F0917803F887EF83E0916F03FA
:101B3000F0917003FA87E987E5E0AE2EE2E0BE2E71
:101B4000411104C05BE0A52E52E0B52E422E542E6A
:101B50003B018C019BE6892E93E0992E90E080E07A
:101B6000EE24E394F12C31E1C32E32E0D32E9C011C
:101B70002F5F3F4F3A8329832B813C812E213F21C8
:101B8000232BA1F0382E292EF4018089918900970A
:101B900069F06816790651F48D819E818E219F210E
:101BA000892BE9F10115110509F446C0EE0CFF1C63
:101BB00089819A81F2E08F0E911C80319105B9F6EE
:101BC00020914E0530914F05E6E2F5E081858111C7
:101BD0000EC080819181009751F06816790639F422
:101BE000868181FFC3C00115110509F4C3C082813C
:101BF0009381009751F06816790639F4878181FF47
:101C0000C5C00115110509F4C5C03A9685E0EE344A
:101C1000F807E1F630934F0520934E055CCF898598
:101C20009A858E219F21892BD1F00230110509F070
:101C3000BDCFF981242DF0FF252D80914E05909187
:101C40004F054F8158854E215F21452B69F0222396
:101C500069F09701209530958223932309C00130C4
:101C6000110509F0A3CFE8CF222399F38E299F29EC
:101C700090934F0580934E050E94760980919105BF
:101C8000909192058130910581F198F08230910513
:101C9000C9F1039709F08ACF85E592E00E944C0ACA
:101CA0002F923F92DF92CF928DE594E09F938F9396
:101CB0000CC086E892E00E944C0A2F923F92DF927D
:101CC000CF922DE534E03F932F930E941F218DE5A5
:101CD00094E00E945E0AC5010E945E0A0F900F9078
:101CE0000F900F900F900F9061CF86E792E00E94C7
:101CF0004C0A2F923F92DF92CF92EDE5F4E0FF93F2
:101D0000EF93E3CF85E692E00E944C0A2F923F9238
:101D10008BE192E09F938F932DE534E03F932F93D7
:101D20000E941F218DE594E00E945E0A81E041102F
:101D300001C080E01F928F9381E0511001C080E0CC
:101D40001F928F93E3E2F2E0FF93EF938DE594E02F
:101D50009F938F930E941F218DE594E00E945E0A5D
:101D60000FB6F894DEBF0FBECDBF20CF01301105F6
:101D700009F03DCF552041F0817009F438CF8481BE
:101D800095812827392733CF8095F6CF013011056B
:101D900009F03BCF552019F08170818736CF8095AF
:101DA000FBCF462F109292051092910520E0BC01C6
:101DB00090E080E00C94470D262F61E070E0709376
:101DC000920560939105BC0181E090E00C94470D71
:101DD000262F62E070E07093920560939105BC013C
:101DE00082E090E00C94470D0F931F93CF93DF9305
:101DF0008B01EC01CC0FDD1FCE010E94CA208017A1
:101E0000910741F0B801CE01DF91CF911F910F9161
:101E10000C94DE20DF91CF911F910F910895FF92D6
:101E20000F931F93CF93DF93EB01042FF52E209197
:101E30005205222309F448C0209102033091030384
:101E40002817390709F040C011E06634710528F4FD
:101E5000CB010197029760F51FE70E9476098BED91
:101E600090E00E944C0AFF920F93DF93CF938EE293
:101E700092E09F938F938DE594E09F938F930E94C0
:101E80001F218DE594E00E945E0A8AE392E00E94A1
:101E90006E0A8DB79EB708960FB6F8949EBF0FBE18
:101EA0008DBF812FDF91CF911F910F91FF900895EA
:101EB000642F752FCE010E94F40E209769F60093CF
:101EC0000003F0920103C8CF1FEFC7CFEF92FF923C
:101ED0000F931F93CF93DF938B017A0120915205CB
:101EE000222309F443C020910203309103032817F1
:101EF0003907E1F5C1E06634710548F4CB01880F7C
:101F0000991F0E94CA20F70191838083CFE7F701D0
:101F1000D081F1800E94760987EE90E00E944C0A01
:101F2000FF92DF931F930F938EE292E09F938F9324
:101F30008DE594E09F938F930E941F218DE594E09F
:101F40000E945E0A87E492E00E946E0A8DB79EB7F7
:101F500008960FB6F8949EBF0FBE8DBF8C2FDF91F1
:101F6000CF911F910F91FF90EF900895CFEFCFCFBA
:101F7000DF92EF92FF920F931F93CF93DF937C0139
:101F80008B01FB0120813181FC01408151818091D5
:101F90000203909103034817590709F047C0809145
:101FA0000003909101032F3F3207B9F5FB019183A4
:101FB000808383E592E00E946E0ACFE7F801D0812A
:101FC000D180F701108101810E9476098BEB90E0AE
:101FD0000E944C0ADF92DF930F931F938AE692E0F0
:101FE0009F938F938DE594E09F938F930E941F2181
:101FF0008DE594E00E945E0A8DB79EB708960FB6F5
:10200000F8949EBF0FBE8DBF8C2FDF91CF911F9193
:102010000F91FF90EF90DF9008952817390731F462
:1020200081E0809352058DE592E0C5CFCFEFC6CF1A
:102030000F931F93CF93DF93FC0180910203909144
:10204000030391838083C0910003D0910103DB01DE
:10205000CC931196DC93108101810E9476098CEA61
:1020600090E00E944C0ADF93CF930F931F938AE670
:1020700092E09F938F938DE594E09F938F930E94BE
:102080001F218DE594E00E945E0A8DB79EB70896E9
:102090000FB6F8949EBF0FBE8DBF8FE7DF91CF9133
:1020A0001F910F91089585ED8093BC008091970456
:1020B00090919804A0919904B0919A040796A11D5B
:1020C000B11D23E0B695A795979587952A95D1F7E9
:1020D0002091BC0024FD03C0109295040895409106
:1020E0009704509198046091990470919A04452B3B
:1020F000462B472B69F30097A105B10541F02AE271
:102100002A95F1F700C00197A109B109E1CF8091AB
:1021100096040C944A071F920F920FB60F92112447
:102120008F939F938091E1009091E100937F909332
:10213000E10083FF0FC01092E90091E09093EB0063
:102140001092EC0092E39093ED0010926A0398E0F5
:102150009093F00082FF22C093E09093E900909169
:10216000F200992319F09AE39093E80090915B03B1
:10217000992341F090915B03915090935B039111EF
:1021800001C05D9A90916903992341F09091690390
:10219000915090936903911101C0289A84FF18C04F
:1021A0008091E2008E7E81608093E2008091E10068
:1021B0008F7E8093E10080915C038E7E80618093AE
:1021C0005C039F918F910F900FBE0F901F901895F9
:1021D00080FFF7CF8091E2008E7E80618093E200E5
:1021E0008091E1008E7E8093E10080915C038E7E81
:1021F0008160E5CF1F920F920FB60F921124CF92FC
:10220000DF92EF92FF920F931F932F933F934F9381
:102210005F936F937F938F939F93AF93BF93EF934E
:10222000FF93CF93DF93CDB7DEB76C97DEBFCDBF03
:102230001092E9008091E80083FF25C068E0CE019C
:1022400045960E949C0582EF8093E8008D8987FF68
:1022500039C09091E80090FFFCCF982F907609F05C
:1022600034C19E894F89588D2F89F88C911131C0C6
:10227000803861F580915A038093F1001092F1004B
:102280008EEF8093E8006C960FB6F894DEBF0FBE19
:10229000CDBFDF91CF91FF91EF91BF91AF919F9112
:1022A0008F917F916F915F914F913F912F911F91EE
:1022B0000F91FF90EF90DF90CF900F900FBE0F9097
:1022C0001F9018959EEF9093E800C7CF1092F100F1
:1022D000D5CF913059F48111D3CF4130510581F6DA
:1022E00080915A038D7F80935A03CACF933049F46B
:1022F0008111C6CF4130510519F680915A03826091
:10230000F2CF953041F48091E80080FFFCCF206847
:102310002093E300B5CF963009F0A9C00B8D1C8D3A
:1023200022E01092E9001092580310925703F21223
:102330002EC010925603109255030E946B051F8207
:1023400099E09983FA8291E09E8390EA98879AEFC8
:1023500099872091570330915803275F3F4F3C8363
:102360002B838D831092E90010925803109257032B
:10237000109356030093550349E050E0BE016F5F90
:102380007F4F80E00E9445050E946B0579CF109336
:102390005603009355030E944F04DC0112960D91E1
:1023A0001C910115110509F451C1D801ED91FC9161
:1023B0000480F581E02DBE016B5E7F4FC801099559
:1023C000009709F03EC1F80100851185EACFF3E0DE
:1023D000FF120EC08F89882309F440C0823061F457
:1023E00040E860E184E492E00E941205811148CF48
:1023F00081E28093EB0047CF813029F440E86BE025
:1024000088E392E0F1CF833099F70E944F04DC011A
:102410001296ED90FC908E010F5F1F4F6801E11442
:10242000F10479F0D701ED91FC910680F781E02D60
:10243000B801C7010995080F111DF701E084F18467
:10244000EECFD8011C92F60101900020E9F73197F8
:10245000BF016C197D0940E0C601C6CF62E272E09F
:10246000FB01449150E080E80E94450509CF973078
:1024700009F4BECF983021F481E08093F10000CFC1
:10248000993009F0FDCE837009F0B2CFE3ECF1E0B2
:1024900081E031E096E32191222371F08093E900FD
:1024A0003093EB00DF0111972C912093EC00909377
:1024B000ED008F5F873079F78EE78093EA00109206
:1024C000EA008F8980936A03DBCE8B8D9C8D1092FE
:1024D000E90010925803109257039093560380938B
:1024E0005503898D811192C08E899D89913A49F455
:1024F000813209F07DCF47E050E064E071E080E098
:10250000B3CF913209F074CF833269F48F89988DFB
:10251000B0E0A0E08093000190930101A09302013C
:10252000B0930301ADCE803269F48091E80082FF60
:10253000FCCF67E084E091E00E949C058BEF8093E4
:10254000E8009ECE823209F09BCE8F8980930B01EA
:10255000EEEFFFE7859194918B3F9C4D51F1E0E0C8
:10256000F8E08091040190910501A0910601B091DD
:102570000701803B9440A105B105F1F480910B0166
:1025800080FD1AC0EE3F8AE0F80789F587E797E7F4
:1025900091838083809160008093590388E19BE060
:1025A0000FB6F894A895809360000FBE90936000DA
:1025B00067CEEEEFFAE0D5CF8081918187379747DC
:1025C00009F05ECEA89580916000886180936000DC
:1025D0008091590380936000EE3F2AE0F20789F072
:1025E0008091FE0A9091FF0A9183808349CE808179
:1025F00091818737980751F29093FF0A8093FE0AE2
:10260000C5CF1092FF0A1092FE0A3ACE0E944F04E4
:10261000DC0112960D911C910115110509F4E8CE0B
:10262000D801ED91FC910190F081E02DBE016B5E2F
:102630007F4FC8010995811123CEF80100851185CE
:10264000EBCF181619060CF41BCED2CEF1E0FF1218
:10265000BECE66E272E004CF1F920F920FB60F92C9
:1026600011242F933F938F939F93AF93BF938091A8
:10267000F2029091F302A091F402B091F502309130
:10268000F10223E0230F2D3758F50196A11DB11D4E
:102690002093F1028093F2029093F302A093F4024C
:1026A000B093F5028091F6029091F702A091F802A2
:1026B000B091F9020196A11DB11D8093F60290938D
:1026C000F702A093F802B093F902BF91AF919F91E6
:1026D0008F913F912F910F900FBE0F901F901895E3
:1026E00026E8230F0296A11DB11DD2CF1F920F9293
:1026F0000FB60F9211242F933F934F935F936F93D5
:102700007F938F939F93AF93BF93CF93DF93EF9379
:10271000FF93B19A8091C5039091C60380549C4F5A
:102720009093C6038093C5038091C5039091C6031F
:1027300090938900809388008091F002882371F043
:102740001092F0024C9B25C081E08093CB03B59A98
:1027500080916F00806280936F001BC08091CA03DC
:102760008F5F8093CA038091CB038430F1F5809111
:10277000CA03893008F58091C10390E0959587954B
:102780008093C1034C9B05C08091C10380688093F6
:10279000C103FF91EF91DF91CF91BF91AF919F91D5
:1027A0008F917F916F915F914F913F912F910F90FA
:1027B0000FBE0F901F901895B59A80916F008062A0
:1027C00080936F008091BF039091C0034C9930C0FB
:1027D000FC01E957FF4F80819181019691838083AD
:1027E0001092CA0381E08093CB038091CB038330A6
:1027F00009F04EC0E091C803F091C9038081409177
:10280000C70329B190E0042E02C0959587950A94DC
:10281000E2F730E054E0359527955A95E1F78227A5
:1028200080FD1CC01092CA0382E08093CB0330C0AD
:102830004091C103FC01E058FF4F208131E0320F8D
:102840003083820F911DDC014C9337FD108280E0B4
:1028500090E0892B29F20E940000C2CF8091CA0328
:10286000893008F043C02091C10381E090E001C0AD
:10287000880F4A95EAF7908120FF36C0809589231A
:1028800080838091C10390E0959587958093C103E3
:102890008091CB03823099F48091CA0381119FC04B
:1028A000E091C803F091C90380819091C70321E0B2
:1028B00030E001C0220F9A95EAF7822B8083809145
:1028C000CB03813009F065CF8091CA03882309F4D6
:1028D0003ECF8091CA03883308F45BCF1092CB03BC
:1028E00080916F008D7F37CF892BCACF8091CA032B
:1028F000893059F4208181E090E001C0880F4A9529
:10290000EAF7809582238083C3CF8091CC038F5FC9
:102910008093CC039091CD03891750F51092CA0390
:102920008091C3039091C403A091CC03A80FB92F49
:10293000B11D8C918093C103808121E030E001C002
:10294000220F4A95EAF7822B808380918400909130
:1029500085008A5A9C4F9093C6038093C50380914B
:10296000C5039091C603909389008093880090CF0F
:1029700081E08093C203E091C303F091C4034091CE
:10298000BF035091C003808180768036C9F4818175
:1029900030E020E0EA01C058DF4F2817B0F4DF0133
:1029A000A20FB31F6C91A88191E09A0F9883A40F96
:1029B000B52FB11D6C9397FD18822F5F3F4FEDCF60
:1029C0008081829586708E5FE3CF80E090E0892BD6
:1029D00011F00E9400001092CA0381E026CF80917E
:1029E000CA038F3008F46BCFE091C803F091C9039C
:1029F00020813091C70381E090E001C0880F3A95B3
:102A0000EAF78095822380831092CA0381E0809345
:102A1000CB03E091BF03F091C003E357FF4F8081E8
:102A200091810196918380834ACF1F920F920FB6B6
:102A30000F9211248F939F93EF93FF93B59AEFE634
:102A4000F0E080818F7D8083809186009091870067
:102A500080529E4F9093C6038093C5038091C50317
:102A60009091C6039093890080938800B19A8081E9
:102A70008260808384E08093CB031092CA0381E05C
:102A80008093F002FF91EF919F918F910F900FBE75
:102A90000F901F9018951F920F920FB60F9211244E
:102AA0002F933F934F935F936F937F938F939F9356
:102AB000AF93BF93EF93FF938091B900887F8036E7
:102AC00009F44AC0F0F5883209F4A7C018F580313E
:102AD00009F49BC0B8F4882309F4F9C0883009F4DC
:102AE00094C0FF91EF91BF91AF919F918F917F9192
:102AF0006F915F914F913F912F910F900FBE0F906B
:102B00001F901895883109F488C0803251F780935E
:102B1000930414C0803409F49DC040F48033B9F3A9
:102B20008833F9F68093930485ECB0C0803509F4BE
:102B300085C0883509F496C0883499F60E945310F0
:102B4000D0CF883909F48CC038F5883729F050F493
:102B5000883611F0803729F683E08093950410922F
:102B6000EF0257C0883809F47BC0803919F08038EB
:102B700009F0B7CF8091EF02803208F071C0E09188
:102B8000EF0281E08E0F8093EF028091BB00F0E0B6
:102B9000E153FD4F80833DC0803B39F0E0F4803A43
:102BA00009F479C0883A09F09CCF84E080939504B9
:102BB0001092CE021092CD02E091FC02F091FD0243
:102BC00009958091CD0281110FC081E08093CD02E3
:102BD0001092AD0209C0803C09F4A6CF883C09F4EC
:102BE000A3CF883B09F07DCFE091CE0281E08E0F2C
:102BF0008093CE02F0E0E355FD4F80818093BB00CF
:102C00009091CE028091CD0229C080917004809372
:102C1000BB0085EC8093BC0064CF909192048091BE
:102C20009104981758F5E091920481E08E0F8093FB
:102C30009204F0E0EF58FB4F8081E9CFE0919204DD
:102C400081E08E0F809392048091BB00F0E0EF58FA
:102C5000FB4F808390919204809191049817C8F261
:102C600085E8D8CFE091920481E08E0F80939204A2
:102C70008091BB00F0E0EF58FB4F8083809194047B
:102C800081115CCF81E080936F0484EA8093BC0063
:102C90001092950426CF85EC8093BC001092950489
:102CA0008091EF02803230F4E091EF02F0E0E153E6
:102CB000FD4F10826091EF0270E0E091FA02F09116
:102CC000FB028FEC92E009951092EF020ACF10926E
:102CD000930434CF1092C2041092C10488EE93E0A2
:102CE000A0E0B0E08093C3049093C404A093C50413
:102CF000B093C6042DEC31E03093C0042093BF04A0
:102D00002FEF3FEF3093CC042093CB0410921105AA
:102D100010921D0510921C0580931E0590931F05AF
:102D2000A0932005B09321058FED91E090931B05B2
:102D300080931A0510924F0510924E05109251057E
:102D4000109250051092520510925305E6E2F5E0FC
:102D500010861182108213821282168217821582C7
:102D6000148211863A9685E0EE34F80789F71092BE
:102D70006205109261051092600510925F05109235
:102D80005E0510925D0510925C0510925B05109235
:102D90005A05109259051092580510925705109235
:102DA0005605109255051092540510928305109205
:102DB00084051092850510928605109287058FEF85
:102DC000809388058093890510928A0510927B056F
:102DD00010927C0510927D0510927E0510927F0561
:102DE000809380058093810510928205109273056F
:102DF0001092740510927505109276051092770561
:102E0000809378058093790510927A0510926B056E
:102E100010926C0510926D0510926E0510926F0560
:102E2000809370058093710510927205109263056E
:102E30001092640510926505109266051092670560
:102E4000809368058093690510926A051092930536
:102E50001092940510929505109296050895CF93BF
:102E6000DF93CDB7DEB762970FB6F894DEBF0FBE23
:102E7000CDBF789484B5826084BD84B5816084BD03
:102E800085B5826085BD85B5816085BD80916E0008
:102E9000816080936E001092810080918100826039
:102EA0008093810080918100816080938100809176
:102EB0008000816080938000809191008260809387
:102EC00091008091910081608093910080919000A9
:102ED0008160809390008091C10084608093C100E4
:102EE0008091C10082608093C1008091C1008160A7
:102EF0008093C1008091C30081608093C300809162
:102F0000C00082608093C0008091C2008160809385
:102F1000C20080917A00846080937A0080917A0068
:102F2000826080937A0080917A00816080937A0039
:102F300080917A00806880937A0010926A031092E0
:102F40005A0310925C038091D70081608093D70070
:102F500080EA8093D80089B5806189BD89B5826097
:102F600089BD09B400FEFDCF61E070E080E090E033
:102F70000E9441068091D8008F7C80618093D800A8
:102F80008091E000807F8093E0008091E1008E7E60
:102F90008093E1008DE08093E200559A209A109290
:102FA0004E031092100510920F0583E090E090936D
:102FB00013058093120510921605109217051092B2
:102FC0001805109219051092FF021092FE0210923D
:102FD0009C041092BE040E942C0789EA95E090930D
:102FE000FD028093FC028AEA95E09093FB028093B5
:102FF000FA028CE30E94F3020E946B0781115FC00A
:103000008CE38093140581E08093110580910F0576
:1030100090911005019709F027C3109215058EEACB
:103020000E947C0960E885ED0E948E096FE388EAC2
:103030000E948E0960E083ED0E948E0980E40E9468
:103040007C0964E18DE80E948E0962E080E20E94C2
:103050008E0962E18AED0E948E096FEC81E80E9480
:103060008E0961EF89ED0E948E0960E48BED0E946C
:103070008E0984EA0E947C0986EA0E947C0980EB22
:103080000E947C0980E00E947C0980E10E947C090A
:103090008FEA0E947C0980EA0E947C0980EC0E94F1
:1030A0007C090E94A80980911105882341F081EADA
:1030B0000E947C0988EC0E947C090E94A8090E9459
:1030C0001C0D86ED91E00E944C0A90E080E00E9489
:1030D000CA208C0182E090E00E94CA207C0182E23A
:1030E00091E00E944C0AFF92EF921F930F9386E7A4
:1030F00092E09F938F938DE594E09F938F930E942E
:103100001F218DE594E00E945E0A015011090FB65F
:10311000F894DEBF0FBECDBF0E3F1F4F30F448EE18
:10312000E41645E0F40609F4D6C281E191E00E947C
:103130004C0A61E070E090E080E00E94F40E68EEDE
:1031400075E081E090E00E94F40E69EE73E082E0A9
:1031500090E00E94F40E70E060E083E090E00E9456
:10316000F40E6AE070E084E090E00E94F40E70E0FB
:1031700060E085E090E00E94F40E70E060E086E0A0
:1031800090E00E94F40E6AE070E087E090E00E9418
:10319000F40E05E410E070E060E0C8010E94F40E57
:1031A0000150110907301105B1F76AEF70E080E0B6
:1031B00090E00E94410664EF71E080E090E00E94A0
:1031C000410681E391E00E944C0A82E090E00E9477
:1031D000CA2090936C0380936B0390E080E00E9480
:1031E000CA2090936E0380936D0386E090E00E9466
:1031F000CA209093700380936F031092740310920F
:103200007303109276031092750310927803109254
:1032100077038EE090E00E94CA2090937A03809317
:103220007903059730F485E090E090937A038093DA
:10323000790388E090E00E94CA2090937203809303
:103240007103059730F485E090E0909372038093CA
:1032500071039BE7C92E93E0D92E0EE310E0EE2414
:10326000E394F12C3AE0A32EB12CC8010E94CA20AD
:10327000D60191969C938E939097C80188970E944F
:10328000CA20B5010E94F320F601619371936F018A
:1032900082FD0AC020917303309174032E293F29C7
:1032A000309374032093730381FF0AC02091750348
:1032B000309176032E293F293093760320937503AE
:1032C00080FD0AC080917703909178038E299F2911
:1032D0009093780380937703EE0CFF1C0E5F1F4FD3
:1032E0000E35110511F664EF71E080E090E00E9468
:1032F0004106C0907303D0907403E0907703F09080
:103300007803D0928C05C0928B0502E9A02E01E0D3
:10331000B02E42EA51E022E731E0A2E5B1E081E0DF
:1033200090E0F50171915F01860108231923012BBB
:1033300009F4D8C1FA0100811181F8016081672B7D
:103340006083880F991F4E5F5F4F2E5F3F4F12962D
:10335000F2EAAF16F1E0BF0621F7809162058823FB
:1033600091F08091620594B18095892384B9809110
:1033700062052091600595B18223892B85B98091E2
:103380006005809383058091610594B18760892BE6
:1033900084B98091610595B187608095892385B94D
:1033A00080915F05882391F080915F0597B18095AA
:1033B000892387B980915F0520915D0598B18223AB
:1033C000892B88B980915D0580937B0580915E058E
:1033D000882359F080915E0597B1892B87B9809138
:1033E0005E0598B18095892388B980915C05882312
:1033F00091F080915C059AB1809589238AB980917A
:103400005C0520915A059BB18223892B8BB9809151
:103410005A058093730580915B05882359F080914C
:103420005B059AB1892B8AB980915B059BB1809528
:1034300089238BB980915905882391F08091590592
:103440009DB1809589238DB98091590520915705AB
:103450009EB18223892B8EB98091570580936B058D
:1034600080915805882359F0809158059DB1892B8A
:103470008DB9809158059EB1809589238EB9809130
:103480005605882391F08091560590B38095892345
:1034900080BB809156052091540591B38223892BDE
:1034A00081BB8091540580936305809155058823E5
:1034B00059F08091550590B3892B80BB80915505BB
:1034C00091B38095892381BB16E064E170E080E0D0
:1034D00090E00E9441060E94B30C1150B1F764E1E4
:1034E00070E080E090E00E944106A0907303B090ED
:1034F0007403A094B09482E090E00E94CA2090935C
:1035000003038093020390E080E00E94CA2090931E
:103510000103809300038AE090E00E94CA20909308
:1035200051058093500506E215E0E4E6EE2EF12CFD
:103530004424439466246394712CAAE08A2E912C2F
:10354000BAE05B2EC7010E94CA20382EC70106963A
:103550000E94CA20950128233923232B79F4432D77
:103560004150550BB30102C0660F771F4A95E2F731
:103570009B012A213B21232B09F0C5C0D8011996B4
:103580004C9240929005C70102960E94CA20282FB3
:10359000B4010E94F320D8016C9311967C9311978B
:1035A000569E2019112416962C93C70104960E944A
:1035B000CA20282FB4010E94F320F801628373838C
:1035C000569E201911242783FAE0EF0EF11C065FA6
:1035D0001F4F2CE8E216F10409F0B4CF8CE090E024
:1035E0000E94CA2090934F0580934E05EEECF3E0C5
:1035F0008FE8DF011D928A95E9F742E851E0FA0170
:10360000649183E691E0FC012491222399F030E05B
:10361000220F331FF901E05CFE4FA591B491F9012F
:10362000E25BFE4F259134912FB7F8943C91632BC8
:103630006C932FBFFA014491FC018491E82FF0E0D4
:10364000EE0FFF1FE25BFE4F2591349180E091E089
:1036500051E0491709F45DC08F5F952F082E01C016
:10366000990F0A94EAF7F5CF82E0809315058EEA68
:103670000E947C0984EA0E947C0960E585ED0E9435
:103680008E096FE388EA0E948E0960E083ED0E9454
:103690008E0980E40E947C0964E18DE80E948E0915
:1036A0006BE88DEA0E948E0962E289ED0E948E0924
:1036B00065E38BED0E948E0982E30E947C096FEF27
:1036C00081E80E948E0986EA0E947C0962E18AED07
:1036D0000E948E09D4CC69EE73E082E090E00E94F3
:1036E000F40E63CDF90100811181F8016081672B2F
:1036F0006083870108231923012B09F422CE0D9141
:103700001C9111971ACEF801118630869583848317
:103710003ACF3093C9032093C8038093C7038EEC3C
:1037200093E09093C0038093BF035498E091C80343
:10373000F091C90320813091C70381E090E001C07E
:10374000880F3A95EAF78095822380831092800053
:1037500081E0809381001092CB03B59A80916F0035
:10376000806280936F0080918100887F8160809368
:10377000810086E493E056E0452E53E0552ED201B9
:103780001D921D921D921D922D018A179B07B9F75C
:1037900064E670E080E090E00E944106109290059F
:1037A000299A64EF71E080E090E00E944106109257
:1037B0009005299810928F052A9A64EF71E080E0B5
:1037C00090E00E94410610928F052A981092900571
:1037D000299A64EF71E080E090E00E944106109227
:1037E0008F052A9A64EF71E080E090E00E94410624
:1037F00010929005299864EF71E080E090E00E94BB
:10380000410610928F052A980E941C0DE0907703C4
:10381000F0907803A0907503B090760380907303C6
:10382000909074038EEA91E00E944C0A40E1742E5D
:1038300000E010E8C40180239123892B09F4B5C06E
:1038400085E892E00E945E0A169507957A947110B9
:10385000F1CF84EA91E00E944C0A20E1922E00E030
:1038600010E8C50180239123892B09F4A1C087E8C2
:1038700092E00E945E0A169507959A949110F1CFF6
:103880008AE991E00E944C0A10E1A12C80E8B82E50
:10389000C7018A219B21892B09F48DC089E892E018
:1038A0000E945E0AB694A794115091F760ED77E0FC
:1038B00080E090E00E9441060E941C0D87EC91E0A0
:1038C0000E944C0A88EB91E00E944C0A0E940B0C6B
:1038D00090934903809348039601282B392B209518
:1038E000309530935403209353030E94380B8091FA
:1038F0004E0590914F059C0120953095C222D32210
:10390000D0924703C09246030E94450C0E94F906DC
:103910006C5E7F4F8F4F9F4F60934F0370935003A8
:10392000809351039093520322242A9410925305BA
:1039300080914F0490914E04891709F4ECC0E82F50
:10394000F0E0E253FC4FF080F7FE78C09091500415
:10395000891751F020915504309156042F5F3F4F45
:1039600030935604209355048093500420925104C0
:103970008F2D8076803611F51092520480914F047D
:103980008F5F80934F04C0905004282F2C1987FD1F
:1039900010924F048091510490915204291709F418
:1039A0005DC0F826F0925104C3CF8DEE91E04ACF6E
:1039B0008DEE91E05ECF8DEE91E072CF8F2D8295EE
:1039C00086708E5F8093520420915004809152043F
:1039D000820F9927991F8138910584F200E8021B14
:1039E000F89440914E0480915004841770F5B42FE0
:1039F000B81B8B2F80934E04789460915004461727
:103A000038F510E050E06EEC73E0C80182539C4F33
:103A10000E940D216091500470E062537C4FA80118
:103A20008EEC93E00E940D2180914F049091500400
:103A3000891B80934F0410925004A0CF80915204B0
:103A400081119CCFF0925204BFCF802F840FD2CF30
:103A5000461B50E070E062537C4FE2CF8F114EC0A6
:103A6000D12CF601E253FC4F6F01209153043091A9
:103A700054042F5F3F4F309354042093530490918C
:103A80004F0490935004C114D10409F48ACFD0920A
:103A90000503C0920403C114D10409F473C1D60113
:103AA00011963C911197432F50E012966C91A62FDE
:103AB000B0E0FD01F695FE2FEE27F795E795E0784B
:103AC000F7708F01032B152BF6019081F801923BC3
:103AD00009F44BC13196913B09F4E2C1F8F49338F3
:103AE00009F4CEC1903B09F4D4C19238F9F480E0D6
:103AF00090E0892B09F446C180E0C8C120915504AB
:103B0000309156042F5F3F4F309356042093550455
:103B1000D12CC12CB4CFD12CC12CB9CF9C3B09F4F2
:103B2000D4C108F0D1C0943B09F40DC2953E19F000
:103B30009D3E09F05DC03F3009F05AC0D601139692
:103B40008C911397853009F053C014961C911497EB
:103B500011114EC016964C91F6019601295F3F4F08
:103B600081E0942F982319F0978190689783880FAC
:103B700031962E173F07A9F7F6011682858180320C
:103B800009F443C28132A1F50780F085E02DD6010A
:103B90001D969C91EF3FFE0709F0E1C1D6011996F1
:103BA0004D915C911A97452B09F0D9C11B964D9107
:103BB0005C914F3F5F4F09F0D2C197FFE7C2B6015A
:103BC000655F7F4FC9010E9418108F3789F4F60195
:103BD0000385148547815085E12C30E020E0628127
:103BE000CE0101960E94DB03CE0101960E94FD02E8
:103BF000E0910403F09105038081853E09F0C2C085
:103C00008181803109F0BEC082818F3709F0BAC04E
:103C100084818F3709F0B6C083818F3709F0B2C035
:103C2000258190E080E030E0A901082E02C0559582
:103C300047950A94E2F740FF09C0DF01A80FB91FBA
:103C400016964C911697406816964C9301968430C0
:103C5000910551F7228590E080E030E0A901082E1F
:103C600002C0559547950A94E2F740FF09C0DF016D
:103C7000A80FB91F1B964C911B9740681B964C933D
:103C800001968430910551F78581807F803409F059
:103C900079C08285807F09F075C086818D3009F0FA
:103CA00071C08781883E09F06DC08085843009F03D
:103CB00069C08585813009F065C08685853009F049
:103CC00061C00E941B0B5EC09D3B09F45BC0903D30
:103CD00009F02CCF3076303229F0303609F401C1AA
:103CE000311150C0E0E0F0E0EF2B09F44BC0CA0105
:103CF0009695982F88279795879580789F708A0F3B
:103D00009B1FE5E055954795EA95E1F7242F217033
:103D10000196D60113963C91139714964C91E42F7B
:103D2000F0E0AF013D3731F0B0E83B9FA001112436
:103D30004E0F5F1F6F7009F4F6C0623009F4F5C0D2
:103D4000643009F4F4C0663009F4F3C0683009F453
:103D5000F2C06A3009F4F1C06C3009F4F0C06E3082
:103D600009F4EFC00E9400000DC0EE0FFF1F82E0BB
:103D700090E065FD02C081E090E060718E0F9F1FB2
:103D80000E94D10E80915305882369F080915303DE
:103D9000909154039C0120953095309354032093C7
:103DA00053030E94380B0E94F90600914F031091B3
:103DB000500320915103309152030617170728072B
:103DC000390780F40E94F9066C5E7F4F8F4F9F4F3A
:103DD00060934F0370935003809351039093520369
:103DE0000E94B30C80914E0590914F050E94450CA6
:103DF0000E940B0C4C01E0905303F090540380910F
:103E000048039091490388259925009173031091E7
:103E100074030095109508231923312CCC24C394E6
:103E2000D12C0115110509F42EC1C8018C219D2149
:103E3000892B11F1F601E095F095FA8BE98BC4011D
:103E40008C219D21892B09F4F8C024E0329EF001D9
:103E50001124EA5FFC4F80819181A281B381892B7B
:103E60008A2B8B2B09F4E6C01082118212821382F6
:103E700069897A89062317233394CC0CDD1CD1CFB2
:103E800080E090E0892B09F47DCF81E00E94000062
:103E900079CF462F40726071CF010E94DC0E72CF45
:103EA00066FF0CC020E030E0232B09F46BCF462FD7
:103EB00040726071CF010E94000064CF462F4071B4
:103EC0006072CF010E94E80E5DCF40E050E0452BCC
:103ED00009F458CF462F40726071CF010E94000054
:103EE00051CF60E070E0672B09F44CCFD6011396F8
:103EF000FC9013978F2D807D803109F043CF14966D
:103F0000EC9001E011E041E08F2D802309F040E0CA
:103F10002E2D2023000F612F80E80E9400001F5FDC
:103F2000153089F72FCF61E41DCF62E41BCF63E426
:103F300019CF64E417CF65E415CF66E413CF67E4C7
:103F400011CF68E40FCF3C3309F052CEE0E0F0E04F
:103F5000EF2B09F417CF8CE30E94000013CF9111CF
:103F60001FC0D60119966D917C91A601455F5F4FE8
:103F7000CF010E94660F8F3709F04FC0F60103850D
:103F800014852185328547815085E12C6281CE01DF
:103F900001960E94DB03CE0101960E94FD02F2CE43
:103FA00097FF23C096FD21C0B601655F7F4FC90111
:103FB0000E94B80F8F37C9F4F60103851485478135
:103FC000508560E8E62E30E020E06281CE01019667
:103FD0000E94DB036AE070E080E090E00E9441060E
:103FE000CE0101960E94FD0211E0D6011D968C9132
:103FF0001D9786FF1CC01B966D917C911C97179690
:104000008D919C910E94F60ABDCE438554856185B1
:104010007285878190850E940F0F87FDE9CDD601BB
:104020006C916F77482F84EB0E94C103ABCE1111C6
:10403000A9CEDECDEC28FD281BCF3FE03315F0F0F4
:10404000A32CB12CF501EE0FFF1FE556FC4F60804D
:1040500071806114710491F00E94F906F501EE0F70
:10406000FF1FEE0FFF1FEA5FFC4F660D771D811DDE
:10407000911D6083718382839383FACE49895A8923
:10408000E422F522F5CE909249038092480306E09F
:1040900013E0CC24C394D12CD8018D909D90AD9089
:1040A000BD908D0181149104A104B10491F00E948E
:1040B000F90686169706A806B90658F4F80134974B
:1040C0001082118212821382C60180959095E82297
:1040D000F922CC0CDD1C40165106F1F6C7010E94F6
:1040E000380B80914E0390915205981731F0882338
:1040F00009F446C0F0E0E0E009950E94F90600915D
:104100004A0310914B0320914C0330914D03061745
:1041100017072807390760F50E94F90666507F4F98
:104120008F4F9F4F60934A0370934B0380934C03D0
:1041300090934D03C0904803D0904903E09046030C
:10414000F0904703009173031091740360E082E0E4
:104150000E94A908B601C8010E94790A60E084E0C3
:104160000E94A908B701C801809590950E94790A1C
:1041700080E090E0892B09F4D9CB0E940000D6CBD7
:1041800081E080934E0380938F05B7CF992309F484
:10419000E8CE2BCFA8E1B0E042E050E00C94E5205F
:1041A000262FF999FECF1FBA92BD81BD20BD0FB653
:1041B000F894FA9AF99A0FBE019608950E94D020B9
:1041C000272F0C94D120DC01CB01FC01F999FECF03
:1041D00006C0F2BDE1BDF89A319600B40D9241508F
:1041E0005040B8F70895AA1BBB1B51E107C0AA1F96
:1041F000BB1FA617B70710F0A61BB70B881F991F88
:104200005A95A9F780959095BC01CD010895EE0FC0
:10421000FF1F0590F491E02D09946817790768F461
:10422000FB01DC01E40FF51FA40FB51F02C00290D3
:104230000E9241505040D8F708950C942723AEE0D9
:10424000B0E0E5E2F1E20C94D7230D891E8986E007
:104250008C831A8309838FEF9FE79E838D83AE0142
:10426000475E5F4F6F89788DCE0101960E94422193
:104270002F813885020F131FF80110822E96E4E07B
:104280000C94F323ABE0B0E0E8E4F1E20C94C92332
:104290007C013B018A01FC0117821682838181FF28
:1042A000C8C1CE0101965C01F7019381F30193FD32
:1042B000859193FF81913F01882309F453C1853291
:1042C00039F493FD859193FF81913F01853229F463
:1042D000B70190E00E943B23E7CF912C212C312C99
:1042E000FFE1F31538F08B3211F190F4803209F1CF
:1042F000833229F137FC3CC020ED280F2A3050F5DD
:1043000036FE20C08AE0989E200D1124922E06C011
:104310008D3291F0803371F7689430F8F30193FD9A
:10432000859193FF81913F018111DACF21C068947B
:1043300031F8689432F8F2CF689433F8EFCF68948C
:1043400034F8ECCFEAE02E9E200D1124222E689442
:1043500035F8E4CF8E3229F436FC04C1689436F87F
:10436000DDCF8C3619F4689437F8D8CF8836B1F29F
:10437000982F9F7D95549330E0F08336A1F18337D9
:10438000C1F1833509F063C02801F2E04F0E511CE2
:10439000F801C080D180692D70E036FC02C06FEF5B
:1043A0007FEFC6010E941C234C01689437F88201FC
:1043B0000AC00C5F1F4FFFE3F98388248394912C7C
:1043C0006501E89437F833FE2DC0522C8114910416
:1043D00071F5552009F468CFB70180E290E00E94A2
:1043E0003B235A94F6CFF801808189830E5F1F4FDB
:1043F000E4CF2801F2E04F0E511CF801C080D180BB
:10440000692D70E036FC02C06FEF7FEFC6010E949D
:1044100030234C018201D5CFB70180E290E00E94A9
:104420003B232A942814190409F0B0F7CECFF601E3
:1044300037FC859137FE81916F01B70190E00E94B2
:104440003B2351105A94F1E08F1A9108BFCF843664
:1044500019F0893609F077C0F80137FE6BC060812A
:104460007181828193810C5F1F4FF32DFF763F2E68
:1044700097FF09C090958095709561957F4F8F4FFC
:104480009F4F689437F82AE030E0A5010E946B2323
:10449000C82ECA188C2C432C36FE0CC0E89440F869
:1044A000C91440F434FE05C032FC03C0F32DFE7E77
:1044B0004F2E892C44FE95C0FE01EC0DF11D80812C
:1044C000803309F087C0242D297E422E842D8870E8
:1044D000582E43FC95C040FE8FC09C2C821418F4CB
:1044E0002C0C922C981844FE91C0B70180E390E008
:1044F0000E943B2342FE09C088E790E041FE02C0D3
:1045000088E590E0B7010E943B23C91408F48AC0F3
:10451000CA94D12C9FEFC91AD90ACA0CDB1CF60128
:1045200082916F01B70190E00E943B23AC14BD045F
:10453000B1F74FCF60817181072E000C880B990B6A
:104540000E5F1F4F92CFD32CE894D4F82AE030E0CE
:10455000853739F1232D297FD22E8F3601F148F48A
:104560008835A9F0F701868197812B96E2E10C94BA
:10457000E523803749F08837A9F7D4FE02C0689454
:10458000D2F820E130E00DC06894D4F8F6CF34FEC4
:1045900003C0822F8660D82E20E132E002C028E0DE
:1045A00030E0F801D7FE0FC0608171818281938174
:1045B0000C5F1F4FA5010E946B23C82ECA183D2C0B
:1045C000E89437F867CF6081718190E080E00E5FFA
:1045D0001F4FF0CF42FC02C0839478CF8394839422
:1045E00075CF842D867809F471CFF6CFB70180E2BC
:1045F00090E00E943B2383948214C0F3512C73CF2C
:10460000522C5818821408F46ECFF8CF842D867877
:1046100009F47BCF8BE241FE80E247FC8DE2B701DB
:1046200090E071CFB70180E390E00E943B239A9421
:104630006CCF8FEF9FEF99CFFC01059061507040D8
:104640000110D8F7809590958E0F9F1F0895FB015C
:10465000DC0102C001900D9241505040D8F70895FE
:10466000FC016150704001900110D8F78095909541
:104670008E0F9F1F08950F931F93CF93DF93182FD3
:10468000092FEB018B8181FD09C01FEF0FEF812FF7
:10469000902FDF91CF911F910F91089582FF14C049
:1046A0002E813F818C819D81281739073CF4E88158
:1046B000F981CF0101969983888310838E819F8130
:1046C00001969F838E83E3CFE885F985812F099535
:1046D000892BA1F3DACFFA01AA27283051F1203132
:1046E00081F1E8946F936E7F6E5F7F4F8F4F9F4F86
:1046F000AF4FB1E03ED0B4E03CD0670F781F891FC8
:104700009A1FA11D680F791F8A1F911DA11D6A0F95
:10471000711D811D911DA11D20D009F468943F9148
:104720002AE0269F11243019305D3193DEF6CF0147
:104730000895462F4770405D4193B3E00FD0C9F70D
:10474000F6CF462F4F70405D4A3318F0495D31FD7A
:104750004052419302D0A9F7EACFB4E0A6959795CD
:10476000879577956795BA95C9F7009761057105A3
:1047700008959B01AC010A2E0694579547953795ED
:104780002795BA95C9F7620F731F841F951FA01D47
:1047900008952F923F924F925F926F927F928F92E5
:1047A0009F92AF92BF92CF92DF92EF92FF920F93C0
:1047B0001F93CF93DF93CDB7DEB7CA1BDB0B0FB6CA
:1047C000F894DEBF0FBECDBF09942A883988488887
:1047D0005F846E847D848C849B84AA84B984C8841D
:1047E000DF80EE80FD800C811B81AA81B981CE0F14
:1047F000D11D0FB6F894DEBF0FBECDBFED010895F9
:10480000F894FFCFFFFFFFFF00E100000000000071
:1048100080B0800000102B002B002B00250025000D
:104820002E00280028003100310031003100250021
:104830002500310031002C0B2C0B2C0B340B340BCE
:10484000280B300B300B240B240B240B240B340BC4
:10485000340B240B240B5A055A055A0560056005D4
:1048600057055D055D05540554055405540560055F
:104870006005540554055C055C055C056205620530
:1048800059055F055F05560556055605560562052F
:104890006205560556054020808010048040804007
:1048A0002010402002015B055B055B056105610589
:1048B00058055E055E055505550555055505610507
:1048C00061055505550500C180810000000000000C
:1048D000006304740684047904CA048804A60400EE
:1048E000000000DD087C08A50A520875086208531C
:1048F000082E003100300020412534752020562537
:1049000033752E253032752000677265656E007232
:1049100065642020004E6F3A253375202D20004E0F
:104920006F3A2533752000433A25752C20543A25DB
:1049300075004144253575205641253575004E6F6B
:1049400074696679205752495445004E6F74696600
:104950007920524541440042726F6164636173740F
:1049600000696E2050726F67206D6F646500415260
:104970002535752041442535750020303A253035E0
:104980006420313A25303564004F0053004900005F
:107C0000CFEFDAE0DEBFCDBF11248FEF87B984B7A5
:107C100014BE98E19093600010926000882321F4D4
:107C200091E080E488B915C088279927EE27FF27BF
:107C300045915591840F951FE030D1F7FC37C1F77E
:107C4000892B80E888B9EE27FF27099480E288B95C
:107C5000992790930001F89481E080938100EE27AA
:107C6000FF27109202014C9BFECFA4D08823CCF7B3
:107C7000853EB9F79FD08031A1F7C3E09BD08F3705
:107C800081F7CA95D9F7C3E0D1E06CD0803449F7C9
:107C900069D082958F70809301018CD08091020110
:107CA0009FEF891358D0909101019923E9F4C3E023
:107CB000D1E089918D30A9F68991883E91F699910C
:107CC0002196899180FF05C0953019F081FFC9CFB9
:107CD000E0F421968991813021F689918530A9F4CB
:107CE00081E080930001BBCF80910001882369F07F
:107CF000913061F490910401809105018E179F07E6
:107D000019F480910301811126D0ABCF923011F488
:107D10000BD0A7CF9430C9F7C3E0D1E088E0199227
:107D20008A95E9F701D0FECF44E0A3E0B1E00D90E1
:107D30001D9051E057BFE895112432964150B9F794
:107D4000CF018F779070892B29F421D0E03011F486
:107D5000FC3709F0089588E128E0809360002093C3
:107D60006000FFCFFF92BF9384E0F82E23D0B82F9E
:107D7000807F809301011ED0B0FD80688993B69505
:107D8000FA94C9F7BF91FF90809101010895EF0126
:107D90003197E078CF01880F991F98B983E004D01C
:107DA00085E002D0FE01089587BFE89507B600FC84
:107DB000FDCF08954C99FECF20918400309185002D
:107DC00020563A4F309389002093880098E086959A
:107DD000A6B3A260A6BBA6B3A1FFFDCF4C99806855
:107DE00020543C4F3093890020938800915079F7BC
:107DF000A6B3A260A6BBA6B3A1FFFDCF4C9BABDF91
:0C7E0000A0910201A827A09302010895A0
:027FFE0005017B
:00000001FF
